{"contracts/election.sol":{"ElectionManager":{"abi":[{"inputs":[],"stateMutability":"nonpayable","type":"constructor"},{"anonymous":false,"inputs":[{"indexed":false,"internalType":"uint256","name":"electionId","type":"uint256"},{"indexed":false,"internalType":"address","name":"candidate","type":"address"}],"name":"CandidateAdded","type":"event"},{"anonymous":false,"inputs":[{"indexed":false,"internalType":"uint256","name":"electionId","type":"uint256"},{"indexed":false,"internalType":"string","name":"name","type":"string"},{"indexed":false,"internalType":"address","name":"creator","type":"address"}],"name":"ElectionCreated","type":"event"},{"anonymous":false,"inputs":[{"indexed":false,"internalType":"uint256","name":"electionId","type":"uint256"},{"indexed":false,"internalType":"address","name":"voter","type":"address"},{"indexed":false,"internalType":"address","name":"candidate","type":"address"}],"name":"VoteCast","type":"event"},{"anonymous":false,"inputs":[{"indexed":false,"internalType":"uint256","name":"electionId","type":"uint256"},{"indexed":false,"internalType":"address","name":"voter","type":"address"}],"name":"VoterAdded","type":"event"},{"inputs":[{"internalType":"uint256","name":"_electionId","type":"uint256"},{"internalType":"address","name":"_candidate","type":"address"}],"name":"addCandidate","outputs":[],"stateMutability":"nonpayable","type":"function"},{"inputs":[{"internalType":"uint256","name":"_electionId","type":"uint256"},{"internalType":"address","name":"_voter","type":"address"}],"name":"addVoter","outputs":[],"stateMutability":"nonpayable","type":"function"},{"inputs":[],"name":"admin","outputs":[{"internalType":"address","name":"","type":"address"}],"stateMutability":"view","type":"function"},{"inputs":[{"internalType":"address","name":"_creator","type":"address"}],"name":"authorizeCreator","outputs":[],"stateMutability":"nonpayable","type":"function"},{"inputs":[{"internalType":"address","name":"","type":"address"}],"name":"authorizedCreators","outputs":[{"internalType":"bool","name":"","type":"bool"}],"stateMutability":"view","type":"function"},{"inputs":[{"internalType":"string","name":"_name","type":"string"}],"name":"createElection","outputs":[{"internalType":"uint256","name":"","type":"uint256"}],"stateMutability":"nonpayable","type":"function"},{"inputs":[],"name":"electionCount","outputs":[{"internalType":"uint256","name":"","type":"uint256"}],"stateMutability":"view","type":"function"},{"inputs":[{"internalType":"uint256","name":"","type":"uint256"}],"name":"elections","outputs":[{"internalType":"string","name":"name","type":"string"},{"internalType":"address","name":"creator","type":"address"},{"internalType":"bool","name":"isActive","type":"bool"}],"stateMutability":"view","type":"function"},{"inputs":[{"internalType":"uint256","name":"_electionId","type":"uint256"}],"name":"endElection","outputs":[],"stateMutability":"nonpayable","type":"function"},{"inputs":[{"internalType":"uint256","name":"_electionId","type":"uint256"}],"name":"getCandidates","outputs":[{"internalType":"address[]","name":"","type":"address[]"}],"stateMutability":"view","type":"function"},{"inputs":[{"internalType":"uint256","name":"_electionId","type":"uint256"}],"name":"getVoters","outputs":[{"internalType":"address[]","name":"","type":"address[]"}],"stateMutability":"view","type":"function"},{"inputs":[{"internalType":"uint256","name":"_electionId","type":"uint256"},{"internalType":"address","name":"_candidate","type":"address"}],"name":"getVotes","outputs":[{"internalType":"uint256","name":"","type":"uint256"}],"stateMutability":"view","type":"function"},{"inputs":[{"internalType":"uint256","name":"_electionId","type":"uint256"}],"name":"getWinner","outputs":[{"internalType":"address","name":"","type":"address"}],"stateMutability":"view","type":"function"},{"inputs":[{"internalType":"uint256","name":"_electionId","type":"uint256"},{"internalType":"address","name":"_candidate","type":"address"}],"name":"vote","outputs":[],"stateMutability":"nonpayable","type":"function"}],"evm":{"bytecode":{"linkReferences":{},"object":"608060405234801561001057600080fd5b50336000806101000a81548173ffffffffffffffffffffffffffffffffffffffff021916908373ffffffffffffffffffffffffffffffffffffffff1602179055506001600360003373ffffffffffffffffffffffffffffffffffffffff1673ffffffffffffffffffffffffffffffffffffffff16815260200190815260200160002060006101000a81548160ff021916908315150217905550612303806100b86000396000f3fe608060405234801561001057600080fd5b50600436106100ea5760003560e01c8063681973601161008c5780639c98bcbb116100665780639c98bcbb14610283578063c695502a1461029f578063d8625b07146102cf578063f851a440146102eb576100ea565b8063681973601461020557806386b646f214610235578063997d283014610265576100ea565b806333c57ccd116100c857806333c57ccd146101575780633e39a7a5146101735780634129b2c9146101a35780635e6fef01146101d3576100ea565b806302d947ef146100ef578063093913211461010b57806315cf4a5f14610127575b600080fd5b61010960048036038101906101049190611421565b610309565b005b61012560048036038101906101209190611421565b61061c565b005b610141600480360381019061013c91906115a7565b6108ea565b60405161014e91906115ff565b60405180910390f35b610171600480360381019061016c9190611421565b610a63565b005b61018d6004803603810190610188919061161a565b610d19565b60405161019a9190611705565b60405180910390f35b6101bd60048036038101906101b8919061161a565b610dc3565b6040516101ca9190611736565b60405180910390f35b6101ed60048036038101906101e8919061161a565b610f3c565b6040516101fc939291906117eb565b60405180910390f35b61021f600480360381019061021a9190611421565b61101b565b60405161022c91906115ff565b60405180910390f35b61024f600480360381019061024a919061161a565b611081565b60405161025c9190611705565b60405180910390f35b61026d61112b565b60405161027a91906115ff565b60405180910390f35b61029d6004803603810190610298919061161a565b611131565b005b6102b960048036038101906102b49190611829565b61124c565b6040516102c69190611856565b60405180910390f35b6102e960048036038101906102e49190611829565b61126c565b005b6102f3611355565b6040516103009190611736565b60405180910390f35b60006001600084815260200190815260200160002090508060010160149054906101000a900460ff16610371576040517f08c379a0000000000000000000000000000000000000000000000000000000008152600401610368906118bd565b60405180910390fd5b8060040160003373ffffffffffffffffffffffffffffffffffffffff1673ffffffffffffffffffffffffffffffffffffffff16815260200190815260200160002060000160009054906101000a900460ff16610402576040517f08c379a00000000000000000000000000000000000000000000000000000000081526004016103f990611929565b60405180910390fd5b8060040160003373ffffffffffffffffffffffffffffffffffffffff1673ffffffffffffffffffffffffffffffffffffffff16815260200190815260200160002060000160019054906101000a900460ff1615610494576040517f08c379a000000000000000000000000000000000000000000000000000000000815260040161048b90611995565b60405180910390fd5b8060020160008373ffffffffffffffffffffffffffffffffffffffff1673ffffffffffffffffffffffffffffffffffffffff16815260200190815260200160002060000160009054906101000a900460ff16610525576040517f08c379a000000000000000000000000000000000000000000000000000000000815260040161051c90611a01565b60405180910390fd5b8060020160008373ffffffffffffffffffffffffffffffffffffffff1673ffffffffffffffffffffffffffffffffffffffff168152602001908152602001600020600101600081548092919061057a90611a50565b919050555060018160040160003373ffffffffffffffffffffffffffffffffffffffff1673ffffffffffffffffffffffffffffffffffffffff16815260200190815260200160002060000160016101000a81548160ff0219169083151502179055507fcfff1651bcea794952a516ce970ab17518a85210bd939aaeaac670a8d3e65ec783338460405161060f93929190611a98565b60405180910390a1505050565b60006001600084815260200190815260200160002090508060010160009054906101000a900473ffffffffffffffffffffffffffffffffffffffff1673ffffffffffffffffffffffffffffffffffffffff163373ffffffffffffffffffffffffffffffffffffffff16146106c5576040517f08c379a00000000000000000000000000000000000000000000000000000000081526004016106bc90611b41565b60405180910390fd5b8060010160149054906101000a900460ff16610716576040517f08c379a000000000000000000000000000000000000000000000000000000000815260040161070d906118bd565b60405180910390fd5b8060040160008373ffffffffffffffffffffffffffffffffffffffff1673ffffffffffffffffffffffffffffffffffffffff16815260200190815260200160002060000160009054906101000a900460ff16156107a8576040517f08c379a000000000000000000000000000000000000000000000000000000000815260040161079f90611bad565b60405180910390fd5b6040518060400160405280600115158152602001600015158152508160040160008473ffffffffffffffffffffffffffffffffffffffff1673ffffffffffffffffffffffffffffffffffffffff16815260200190815260200160002060008201518160000160006101000a81548160ff02191690831515021790555060208201518160000160016101000a81548160ff02191690831515021790555090505080600501829080600181540180825580915050600190039060005260206000200160009091909190916101000a81548173ffffffffffffffffffffffffffffffffffffffff021916908373ffffffffffffffffffffffffffffffffffffffff1602179055507fbe03f66069cbbe16c325546c4cf7a8d334ab3baa0a1e50ad1b5955cf7565f51483836040516108dd929190611bcd565b60405180910390a1505050565b6000600360003373ffffffffffffffffffffffffffffffffffffffff1673ffffffffffffffffffffffffffffffffffffffff16815260200190815260200160002060009054906101000a900460ff16610978576040517f08c379a000000000000000000000000000000000000000000000000000000000815260040161096f90611c68565b60405180910390fd5b6002600081548092919061098b90611a50565b919050555060006001600060025481526020019081526020016000209050828160000190816109ba9190611e94565b50338160010160006101000a81548173ffffffffffffffffffffffffffffffffffffffff021916908373ffffffffffffffffffffffffffffffffffffffff16021790555060018160010160146101000a81548160ff0219169083151502179055507f86a3370600c4089c572e5fa1f974825253da2be6295eb9e0eef3423aebd991b06002548433604051610a5093929190611f66565b60405180910390a1600254915050919050565b60006001600084815260200190815260200160002090508060010160009054906101000a900473ffffffffffffffffffffffffffffffffffffffff1673ffffffffffffffffffffffffffffffffffffffff163373ffffffffffffffffffffffffffffffffffffffff1614610b0c576040517f08c379a0000000000000000000000000000000000000000000000000000000008152600401610b0390612016565b60405180910390fd5b8060010160149054906101000a900460ff16610b5d576040517f08c379a0000000000000000000000000000000000000000000000000000000008152600401610b54906118bd565b60405180910390fd5b8060020160008373ffffffffffffffffffffffffffffffffffffffff1673ffffffffffffffffffffffffffffffffffffffff16815260200190815260200160002060000160009054906101000a900460ff1615610bef576040517f08c379a0000000000000000000000000000000000000000000000000000000008152600401610be690612082565b60405180910390fd5b604051806040016040528060011515815260200160008152508160020160008473ffffffffffffffffffffffffffffffffffffffff1673ffffffffffffffffffffffffffffffffffffffff16815260200190815260200160002060008201518160000160006101000a81548160ff0219169083151502179055506020820151816001015590505080600301829080600181540180825580915050600190039060005260206000200160009091909190916101000a81548173ffffffffffffffffffffffffffffffffffffffff021916908373ffffffffffffffffffffffffffffffffffffffff1602179055507fae67715e53b8e1ee028f0b9cddbc208be7d0889701d1ba0ec4414baeaf37b2eb8383604051610d0c929190611bcd565b60405180910390a1505050565b6060600060016000848152602001908152602001600020905080600301805480602002602001604051908101604052809291908181526020018280548015610db657602002820191906000526020600020905b8160009054906101000a900473ffffffffffffffffffffffffffffffffffffffff1673ffffffffffffffffffffffffffffffffffffffff1681526020019060010190808311610d6c575b5050505050915050919050565b6000806001600084815260200190815260200160002090508060010160149054906101000a900460ff1615610e2d576040517f08c379a0000000000000000000000000000000000000000000000000000000008152600401610e24906120ee565b60405180910390fd5b6000806000905060005b8360030180549050811015610f30576000846003018281548110610e5e57610e5d61210e565b5b9060005260206000200160009054906101000a900473ffffffffffffffffffffffffffffffffffffffff169050828560020160008373ffffffffffffffffffffffffffffffffffffffff1673ffffffffffffffffffffffffffffffffffffffff168152602001908152602001600020600101541115610f22578460020160008273ffffffffffffffffffffffffffffffffffffffff1673ffffffffffffffffffffffffffffffffffffffff1681526020019081526020016000206001015492508093505b508080600101915050610e37565b50819350505050919050565b6001602052806000526040600020600091509050806000018054610f5f90611cb7565b80601f0160208091040260200160405190810160405280929190818152602001828054610f8b90611cb7565b8015610fd85780601f10610fad57610100808354040283529160200191610fd8565b820191906000526020600020905b815481529060010190602001808311610fbb57829003601f168201915b5050505050908060010160009054906101000a900473ffffffffffffffffffffffffffffffffffffffff16908060010160149054906101000a900460ff16905083565b6000806001600085815260200190815260200160002090508060020160008473ffffffffffffffffffffffffffffffffffffffff1673ffffffffffffffffffffffffffffffffffffffff1681526020019081526020016000206001015491505092915050565b606060006001600084815260200190815260200160002090508060050180548060200260200160405190810160405280929190818152602001828054801561111e57602002820191906000526020600020905b8160009054906101000a900473ffffffffffffffffffffffffffffffffffffffff1673ffffffffffffffffffffffffffffffffffffffff16815260200190600101908083116110d4575b5050505050915050919050565b60025481565b60006001600083815260200190815260200160002090508060010160009054906101000a900473ffffffffffffffffffffffffffffffffffffffff1673ffffffffffffffffffffffffffffffffffffffff163373ffffffffffffffffffffffffffffffffffffffff16146111da576040517f08c379a00000000000000000000000000000000000000000000000000000000081526004016111d1906121af565b60405180910390fd5b8060010160149054906101000a900460ff1661122b576040517f08c379a00000000000000000000000000000000000000000000000000000000081526004016112229061221b565b60405180910390fd5b60008160010160146101000a81548160ff0219169083151502179055505050565b60036020528060005260406000206000915054906101000a900460ff1681565b60008054906101000a900473ffffffffffffffffffffffffffffffffffffffff1673ffffffffffffffffffffffffffffffffffffffff163373ffffffffffffffffffffffffffffffffffffffff16146112fa576040517f08c379a00000000000000000000000000000000000000000000000000000000081526004016112f1906122ad565b60405180910390fd5b6001600360008373ffffffffffffffffffffffffffffffffffffffff1673ffffffffffffffffffffffffffffffffffffffff16815260200190815260200160002060006101000a81548160ff02191690831515021790555050565b60008054906101000a900473ffffffffffffffffffffffffffffffffffffffff1681565b6000604051905090565b600080fd5b600080fd5b6000819050919050565b6113a08161138d565b81146113ab57600080fd5b50565b6000813590506113bd81611397565b92915050565b600073ffffffffffffffffffffffffffffffffffffffff82169050919050565b60006113ee826113c3565b9050919050565b6113fe816113e3565b811461140957600080fd5b50565b60008135905061141b816113f5565b92915050565b6000806040838503121561143857611437611383565b5b6000611446858286016113ae565b92505060206114578582860161140c565b9150509250929050565b600080fd5b600080fd5b6000601f19601f8301169050919050565b7f4e487b7100000000000000000000000000000000000000000000000000000000600052604160045260246000fd5b6114b48261146b565b810181811067ffffffffffffffff821117156114d3576114d261147c565b5b80604052505050565b60006114e6611379565b90506114f282826114ab565b919050565b600067ffffffffffffffff8211156115125761151161147c565b5b61151b8261146b565b9050602081019050919050565b82818337600083830152505050565b600061154a611545846114f7565b6114dc565b90508281526020810184848401111561156657611565611466565b5b611571848285611528565b509392505050565b600082601f83011261158e5761158d611461565b5b813561159e848260208601611537565b91505092915050565b6000602082840312156115bd576115bc611383565b5b600082013567ffffffffffffffff8111156115db576115da611388565b5b6115e784828501611579565b91505092915050565b6115f98161138d565b82525050565b600060208201905061161460008301846115f0565b92915050565b6000602082840312156116305761162f611383565b5b600061163e848285016113ae565b91505092915050565b600081519050919050565b600082825260208201905092915050565b6000819050602082019050919050565b61167c816113e3565b82525050565b600061168e8383611673565b60208301905092915050565b6000602082019050919050565b60006116b282611647565b6116bc8185611652565b93506116c783611663565b8060005b838110156116f85781516116df8882611682565b97506116ea8361169a565b9250506001810190506116cb565b5085935050505092915050565b6000602082019050818103600083015261171f81846116a7565b905092915050565b611730816113e3565b82525050565b600060208201905061174b6000830184611727565b92915050565b600081519050919050565b600082825260208201905092915050565b60005b8381101561178b578082015181840152602081019050611770565b60008484015250505050565b60006117a282611751565b6117ac818561175c565b93506117bc81856020860161176d565b6117c58161146b565b840191505092915050565b60008115159050919050565b6117e5816117d0565b82525050565b600060608201905081810360008301526118058186611797565b90506118146020830185611727565b61182160408301846117dc565b949350505050565b60006020828403121561183f5761183e611383565b5b600061184d8482850161140c565b91505092915050565b600060208201905061186b60008301846117dc565b92915050565b7f456c656374696f6e206973206e6f742061637469766500000000000000000000600082015250565b60006118a760168361175c565b91506118b282611871565b602082019050919050565b600060208201905081810360008301526118d68161189a565b9050919050565b7f596f7520617265206e6f7420616c6c6f77656420746f20766f74650000000000600082015250565b6000611913601b8361175c565b915061191e826118dd565b602082019050919050565b6000602082019050818103600083015261194281611906565b9050919050565b7f596f75206861766520616c726561647920766f74656400000000000000000000600082015250565b600061197f60168361175c565b915061198a82611949565b602082019050919050565b600060208201905081810360008301526119ae81611972565b9050919050565b7f496e76616c69642063616e646964617465000000000000000000000000000000600082015250565b60006119eb60118361175c565b91506119f6826119b5565b602082019050919050565b60006020820190508181036000830152611a1a816119de565b9050919050565b7f4e487b7100000000000000000000000000000000000000000000000000000000600052601160045260246000fd5b6000611a5b8261138d565b91507fffffffffffffffffffffffffffffffffffffffffffffffffffffffffffffffff8203611a8d57611a8c611a21565b5b600182019050919050565b6000606082019050611aad60008301866115f0565b611aba6020830185611727565b611ac76040830184611727565b949350505050565b7f4f6e6c7920656c656374696f6e2063726561746f722063616e2061646420766f60008201527f7465727300000000000000000000000000000000000000000000000000000000602082015250565b6000611b2b60248361175c565b9150611b3682611acf565b604082019050919050565b60006020820190508181036000830152611b5a81611b1e565b9050919050565b7f566f74657220616c726561647920616464656400000000000000000000000000600082015250565b6000611b9760138361175c565b9150611ba282611b61565b602082019050919050565b60006020820190508181036000830152611bc681611b8a565b9050919050565b6000604082019050611be260008301856115f0565b611bef6020830184611727565b9392505050565b7f4e6f7420616e20617574686f72697a656420656c656374696f6e20637265617460008201527f6f72000000000000000000000000000000000000000000000000000000000000602082015250565b6000611c5260228361175c565b9150611c5d82611bf6565b604082019050919050565b60006020820190508181036000830152611c8181611c45565b9050919050565b7f4e487b7100000000000000000000000000000000000000000000000000000000600052602260045260246000fd5b60006002820490506001821680611ccf57607f821691505b602082108103611ce257611ce1611c88565b5b50919050565b60008190508160005260206000209050919050565b60006020601f8301049050919050565b600082821b905092915050565b600060088302611d4a7fffffffffffffffffffffffffffffffffffffffffffffffffffffffffffffffff82611d0d565b611d548683611d0d565b95508019841693508086168417925050509392505050565b6000819050919050565b6000611d91611d8c611d878461138d565b611d6c565b61138d565b9050919050565b6000819050919050565b611dab83611d76565b611dbf611db782611d98565b848454611d1a565b825550505050565b600090565b611dd4611dc7565b611ddf818484611da2565b505050565b5b81811015611e0357611df8600082611dcc565b600181019050611de5565b5050565b601f821115611e4857611e1981611ce8565b611e2284611cfd565b81016020851015611e31578190505b611e45611e3d85611cfd565b830182611de4565b50505b505050565b600082821c905092915050565b6000611e6b60001984600802611e4d565b1980831691505092915050565b6000611e848383611e5a565b9150826002028217905092915050565b611e9d82611751565b67ffffffffffffffff811115611eb657611eb561147c565b5b611ec08254611cb7565b611ecb828285611e07565b600060209050601f831160018114611efe5760008415611eec578287015190505b611ef68582611e78565b865550611f5e565b601f198416611f0c86611ce8565b60005b82811015611f3457848901518255600182019150602085019450602081019050611f0f565b86831015611f515784890151611f4d601f891682611e5a565b8355505b6001600288020188555050505b505050505050565b6000606082019050611f7b60008301866115f0565b8181036020830152611f8d8185611797565b9050611f9c6040830184611727565b949350505050565b7f4f6e6c7920656c656374696f6e2063726561746f722063616e2061646420636160008201527f6e64696461746573000000000000000000000000000000000000000000000000602082015250565b600061200060288361175c565b915061200b82611fa4565b604082019050919050565b6000602082019050818103600083015261202f81611ff3565b9050919050565b7f43616e64696461746520616c7265616479206164646564000000000000000000600082015250565b600061206c60178361175c565b915061207782612036565b602082019050919050565b6000602082019050818103600083015261209b8161205f565b9050919050565b7f456c656374696f6e206973207374696c6c206163746976650000000000000000600082015250565b60006120d860188361175c565b91506120e3826120a2565b602082019050919050565b60006020820190508181036000830152612107816120cb565b9050919050565b7f4e487b7100000000000000000000000000000000000000000000000000000000600052603260045260246000fd5b7f4f6e6c7920656c656374696f6e2063726561746f722063616e20656e6420746860008201527f6520656c656374696f6e00000000000000000000000000000000000000000000602082015250565b6000612199602a8361175c565b91506121a48261213d565b604082019050919050565b600060208201905081810360008301526121c88161218c565b9050919050565b7f456c656374696f6e20697320616c726561647920656e64656400000000000000600082015250565b600061220560198361175c565b9150612210826121cf565b602082019050919050565b60006020820190508181036000830152612234816121f8565b9050919050565b7f4f6e6c792061646d696e2063616e20706572666f726d2074686973206163746960008201527f6f6e000000000000000000000000000000000000000000000000000000000000602082015250565b600061229760228361175c565b91506122a28261223b565b604082019050919050565b600060208201905081810360008301526122c68161228a565b905091905056fea2646970667358221220769761b9d2e51d10d47662683388245a08706b87b0d1bd5a7b704565f85563ee64736f6c63430008180033","opcodes":"PUSH1 0x80 PUSH1 0x40 MSTORE CALLVALUE DUP1 ISZERO PUSH2 0x10 JUMPI PUSH1 0x0 DUP1 REVERT JUMPDEST POP CALLER PUSH1 0x0 DUP1 PUSH2 0x100 EXP DUP2 SLOAD DUP2 PUSH20 0xFFFFFFFFFFFFFFFFFFFFFFFFFFFFFFFFFFFFFFFF MUL NOT AND SWAP1 DUP4 PUSH20 0xFFFFFFFFFFFFFFFFFFFFFFFFFFFFFFFFFFFFFFFF AND MUL OR SWAP1 SSTORE POP PUSH1 0x1 PUSH1 0x3 PUSH1 0x0 CALLER PUSH20 0xFFFFFFFFFFFFFFFFFFFFFFFFFFFFFFFFFFFFFFFF AND PUSH20 0xFFFFFFFFFFFFFFFFFFFFFFFFFFFFFFFFFFFFFFFF AND DUP2 MSTORE PUSH1 0x20 ADD SWAP1 DUP2 MSTORE PUSH1 0x20 ADD PUSH1 0x0 KECCAK256 PUSH1 0x0 PUSH2 0x100 EXP DUP2 SLOAD DUP2 PUSH1 0xFF MUL NOT AND SWAP1 DUP4 ISZERO ISZERO MUL OR SWAP1 SSTORE POP PUSH2 0x2303 DUP1 PUSH2 0xB8 PUSH1 0x0 CODECOPY PUSH1 0x0 RETURN INVALID PUSH1 0x80 PUSH1 0x40 MSTORE CALLVALUE DUP1 ISZERO PUSH2 0x10 JUMPI PUSH1 0x0 DUP1 REVERT JUMPDEST POP PUSH1 0x4 CALLDATASIZE LT PUSH2 0xEA JUMPI PUSH1 0x0 CALLDATALOAD PUSH1 0xE0 SHR DUP1 PUSH4 0x68197360 GT PUSH2 0x8C JUMPI DUP1 PUSH4 0x9C98BCBB GT PUSH2 0x66 JUMPI DUP1 PUSH4 0x9C98BCBB EQ PUSH2 0x283 JUMPI DUP1 PUSH4 0xC695502A EQ PUSH2 0x29F JUMPI DUP1 PUSH4 0xD8625B07 EQ PUSH2 0x2CF JUMPI DUP1 PUSH4 0xF851A440 EQ PUSH2 0x2EB JUMPI PUSH2 0xEA JUMP JUMPDEST DUP1 PUSH4 0x68197360 EQ PUSH2 0x205 JUMPI DUP1 PUSH4 0x86B646F2 EQ PUSH2 0x235 JUMPI DUP1 PUSH4 0x997D2830 EQ PUSH2 0x265 JUMPI PUSH2 0xEA JUMP JUMPDEST DUP1 PUSH4 0x33C57CCD GT PUSH2 0xC8 JUMPI DUP1 PUSH4 0x33C57CCD EQ PUSH2 0x157 JUMPI DUP1 PUSH4 0x3E39A7A5 EQ PUSH2 0x173 JUMPI DUP1 PUSH4 0x4129B2C9 EQ PUSH2 0x1A3 JUMPI DUP1 PUSH4 0x5E6FEF01 EQ PUSH2 0x1D3 JUMPI PUSH2 0xEA JUMP JUMPDEST DUP1 PUSH4 0x2D947EF EQ PUSH2 0xEF JUMPI DUP1 PUSH4 0x9391321 EQ PUSH2 0x10B JUMPI DUP1 PUSH4 0x15CF4A5F EQ PUSH2 0x127 JUMPI JUMPDEST PUSH1 0x0 DUP1 REVERT JUMPDEST PUSH2 0x109 PUSH1 0x4 DUP1 CALLDATASIZE SUB DUP2 ADD SWAP1 PUSH2 0x104 SWAP2 SWAP1 PUSH2 0x1421 JUMP JUMPDEST PUSH2 0x309 JUMP JUMPDEST STOP JUMPDEST PUSH2 0x125 PUSH1 0x4 DUP1 CALLDATASIZE SUB DUP2 ADD SWAP1 PUSH2 0x120 SWAP2 SWAP1 PUSH2 0x1421 JUMP JUMPDEST PUSH2 0x61C JUMP JUMPDEST STOP JUMPDEST PUSH2 0x141 PUSH1 0x4 DUP1 CALLDATASIZE SUB DUP2 ADD SWAP1 PUSH2 0x13C SWAP2 SWAP1 PUSH2 0x15A7 JUMP JUMPDEST PUSH2 0x8EA JUMP JUMPDEST PUSH1 0x40 MLOAD PUSH2 0x14E SWAP2 SWAP1 PUSH2 0x15FF JUMP JUMPDEST PUSH1 0x40 MLOAD DUP1 SWAP2 SUB SWAP1 RETURN JUMPDEST PUSH2 0x171 PUSH1 0x4 DUP1 CALLDATASIZE SUB DUP2 ADD SWAP1 PUSH2 0x16C SWAP2 SWAP1 PUSH2 0x1421 JUMP JUMPDEST PUSH2 0xA63 JUMP JUMPDEST STOP JUMPDEST PUSH2 0x18D PUSH1 0x4 DUP1 CALLDATASIZE SUB DUP2 ADD SWAP1 PUSH2 0x188 SWAP2 SWAP1 PUSH2 0x161A JUMP JUMPDEST PUSH2 0xD19 JUMP JUMPDEST PUSH1 0x40 MLOAD PUSH2 0x19A SWAP2 SWAP1 PUSH2 0x1705 JUMP JUMPDEST PUSH1 0x40 MLOAD DUP1 SWAP2 SUB SWAP1 RETURN JUMPDEST PUSH2 0x1BD PUSH1 0x4 DUP1 CALLDATASIZE SUB DUP2 ADD SWAP1 PUSH2 0x1B8 SWAP2 SWAP1 PUSH2 0x161A JUMP JUMPDEST PUSH2 0xDC3 JUMP JUMPDEST PUSH1 0x40 MLOAD PUSH2 0x1CA SWAP2 SWAP1 PUSH2 0x1736 JUMP JUMPDEST PUSH1 0x40 MLOAD DUP1 SWAP2 SUB SWAP1 RETURN JUMPDEST PUSH2 0x1ED PUSH1 0x4 DUP1 CALLDATASIZE SUB DUP2 ADD SWAP1 PUSH2 0x1E8 SWAP2 SWAP1 PUSH2 0x161A JUMP JUMPDEST PUSH2 0xF3C JUMP JUMPDEST PUSH1 0x40 MLOAD PUSH2 0x1FC SWAP4 SWAP3 SWAP2 SWAP1 PUSH2 0x17EB JUMP JUMPDEST PUSH1 0x40 MLOAD DUP1 SWAP2 SUB SWAP1 RETURN JUMPDEST PUSH2 0x21F PUSH1 0x4 DUP1 CALLDATASIZE SUB DUP2 ADD SWAP1 PUSH2 0x21A SWAP2 SWAP1 PUSH2 0x1421 JUMP JUMPDEST PUSH2 0x101B JUMP JUMPDEST PUSH1 0x40 MLOAD PUSH2 0x22C SWAP2 SWAP1 PUSH2 0x15FF JUMP JUMPDEST PUSH1 0x40 MLOAD DUP1 SWAP2 SUB SWAP1 RETURN JUMPDEST PUSH2 0x24F PUSH1 0x4 DUP1 CALLDATASIZE SUB DUP2 ADD SWAP1 PUSH2 0x24A SWAP2 SWAP1 PUSH2 0x161A JUMP JUMPDEST PUSH2 0x1081 JUMP JUMPDEST PUSH1 0x40 MLOAD PUSH2 0x25C SWAP2 SWAP1 PUSH2 0x1705 JUMP JUMPDEST PUSH1 0x40 MLOAD DUP1 SWAP2 SUB SWAP1 RETURN JUMPDEST PUSH2 0x26D PUSH2 0x112B JUMP JUMPDEST PUSH1 0x40 MLOAD PUSH2 0x27A SWAP2 SWAP1 PUSH2 0x15FF JUMP JUMPDEST PUSH1 0x40 MLOAD DUP1 SWAP2 SUB SWAP1 RETURN JUMPDEST PUSH2 0x29D PUSH1 0x4 DUP1 CALLDATASIZE SUB DUP2 ADD SWAP1 PUSH2 0x298 SWAP2 SWAP1 PUSH2 0x161A JUMP JUMPDEST PUSH2 0x1131 JUMP JUMPDEST STOP JUMPDEST PUSH2 0x2B9 PUSH1 0x4 DUP1 CALLDATASIZE SUB DUP2 ADD SWAP1 PUSH2 0x2B4 SWAP2 SWAP1 PUSH2 0x1829 JUMP JUMPDEST PUSH2 0x124C JUMP JUMPDEST PUSH1 0x40 MLOAD PUSH2 0x2C6 SWAP2 SWAP1 PUSH2 0x1856 JUMP JUMPDEST PUSH1 0x40 MLOAD DUP1 SWAP2 SUB SWAP1 RETURN JUMPDEST PUSH2 0x2E9 PUSH1 0x4 DUP1 CALLDATASIZE SUB DUP2 ADD SWAP1 PUSH2 0x2E4 SWAP2 SWAP1 PUSH2 0x1829 JUMP JUMPDEST PUSH2 0x126C JUMP JUMPDEST STOP JUMPDEST PUSH2 0x2F3 PUSH2 0x1355 JUMP JUMPDEST PUSH1 0x40 MLOAD PUSH2 0x300 SWAP2 SWAP1 PUSH2 0x1736 JUMP JUMPDEST PUSH1 0x40 MLOAD DUP1 SWAP2 SUB SWAP1 RETURN JUMPDEST PUSH1 0x0 PUSH1 0x1 PUSH1 0x0 DUP5 DUP2 MSTORE PUSH1 0x20 ADD SWAP1 DUP2 MSTORE PUSH1 0x20 ADD PUSH1 0x0 KECCAK256 SWAP1 POP DUP1 PUSH1 0x1 ADD PUSH1 0x14 SWAP1 SLOAD SWAP1 PUSH2 0x100 EXP SWAP1 DIV PUSH1 0xFF AND PUSH2 0x371 JUMPI PUSH1 0x40 MLOAD PUSH32 0x8C379A000000000000000000000000000000000000000000000000000000000 DUP2 MSTORE PUSH1 0x4 ADD PUSH2 0x368 SWAP1 PUSH2 0x18BD JUMP JUMPDEST PUSH1 0x40 MLOAD DUP1 SWAP2 SUB SWAP1 REVERT JUMPDEST DUP1 PUSH1 0x4 ADD PUSH1 0x0 CALLER PUSH20 0xFFFFFFFFFFFFFFFFFFFFFFFFFFFFFFFFFFFFFFFF AND PUSH20 0xFFFFFFFFFFFFFFFFFFFFFFFFFFFFFFFFFFFFFFFF AND DUP2 MSTORE PUSH1 0x20 ADD SWAP1 DUP2 MSTORE PUSH1 0x20 ADD PUSH1 0x0 KECCAK256 PUSH1 0x0 ADD PUSH1 0x0 SWAP1 SLOAD SWAP1 PUSH2 0x100 EXP SWAP1 DIV PUSH1 0xFF AND PUSH2 0x402 JUMPI PUSH1 0x40 MLOAD PUSH32 0x8C379A000000000000000000000000000000000000000000000000000000000 DUP2 MSTORE PUSH1 0x4 ADD PUSH2 0x3F9 SWAP1 PUSH2 0x1929 JUMP JUMPDEST PUSH1 0x40 MLOAD DUP1 SWAP2 SUB SWAP1 REVERT JUMPDEST DUP1 PUSH1 0x4 ADD PUSH1 0x0 CALLER PUSH20 0xFFFFFFFFFFFFFFFFFFFFFFFFFFFFFFFFFFFFFFFF AND PUSH20 0xFFFFFFFFFFFFFFFFFFFFFFFFFFFFFFFFFFFFFFFF AND DUP2 MSTORE PUSH1 0x20 ADD SWAP1 DUP2 MSTORE PUSH1 0x20 ADD PUSH1 0x0 KECCAK256 PUSH1 0x0 ADD PUSH1 0x1 SWAP1 SLOAD SWAP1 PUSH2 0x100 EXP SWAP1 DIV PUSH1 0xFF AND ISZERO PUSH2 0x494 JUMPI PUSH1 0x40 MLOAD PUSH32 0x8C379A000000000000000000000000000000000000000000000000000000000 DUP2 MSTORE PUSH1 0x4 ADD PUSH2 0x48B SWAP1 PUSH2 0x1995 JUMP JUMPDEST PUSH1 0x40 MLOAD DUP1 SWAP2 SUB SWAP1 REVERT JUMPDEST DUP1 PUSH1 0x2 ADD PUSH1 0x0 DUP4 PUSH20 0xFFFFFFFFFFFFFFFFFFFFFFFFFFFFFFFFFFFFFFFF AND PUSH20 0xFFFFFFFFFFFFFFFFFFFFFFFFFFFFFFFFFFFFFFFF AND DUP2 MSTORE PUSH1 0x20 ADD SWAP1 DUP2 MSTORE PUSH1 0x20 ADD PUSH1 0x0 KECCAK256 PUSH1 0x0 ADD PUSH1 0x0 SWAP1 SLOAD SWAP1 PUSH2 0x100 EXP SWAP1 DIV PUSH1 0xFF AND PUSH2 0x525 JUMPI PUSH1 0x40 MLOAD PUSH32 0x8C379A000000000000000000000000000000000000000000000000000000000 DUP2 MSTORE PUSH1 0x4 ADD PUSH2 0x51C SWAP1 PUSH2 0x1A01 JUMP JUMPDEST PUSH1 0x40 MLOAD DUP1 SWAP2 SUB SWAP1 REVERT JUMPDEST DUP1 PUSH1 0x2 ADD PUSH1 0x0 DUP4 PUSH20 0xFFFFFFFFFFFFFFFFFFFFFFFFFFFFFFFFFFFFFFFF AND PUSH20 0xFFFFFFFFFFFFFFFFFFFFFFFFFFFFFFFFFFFFFFFF AND DUP2 MSTORE PUSH1 0x20 ADD SWAP1 DUP2 MSTORE PUSH1 0x20 ADD PUSH1 0x0 KECCAK256 PUSH1 0x1 ADD PUSH1 0x0 DUP2 SLOAD DUP1 SWAP3 SWAP2 SWAP1 PUSH2 0x57A SWAP1 PUSH2 0x1A50 JUMP JUMPDEST SWAP2 SWAP1 POP SSTORE POP PUSH1 0x1 DUP2 PUSH1 0x4 ADD PUSH1 0x0 CALLER PUSH20 0xFFFFFFFFFFFFFFFFFFFFFFFFFFFFFFFFFFFFFFFF AND PUSH20 0xFFFFFFFFFFFFFFFFFFFFFFFFFFFFFFFFFFFFFFFF AND DUP2 MSTORE PUSH1 0x20 ADD SWAP1 DUP2 MSTORE PUSH1 0x20 ADD PUSH1 0x0 KECCAK256 PUSH1 0x0 ADD PUSH1 0x1 PUSH2 0x100 EXP DUP2 SLOAD DUP2 PUSH1 0xFF MUL NOT AND SWAP1 DUP4 ISZERO ISZERO MUL OR SWAP1 SSTORE POP PUSH32 0xCFFF1651BCEA794952A516CE970AB17518A85210BD939AAEAAC670A8D3E65EC7 DUP4 CALLER DUP5 PUSH1 0x40 MLOAD PUSH2 0x60F SWAP4 SWAP3 SWAP2 SWAP1 PUSH2 0x1A98 JUMP JUMPDEST PUSH1 0x40 MLOAD DUP1 SWAP2 SUB SWAP1 LOG1 POP POP POP JUMP JUMPDEST PUSH1 0x0 PUSH1 0x1 PUSH1 0x0 DUP5 DUP2 MSTORE PUSH1 0x20 ADD SWAP1 DUP2 MSTORE PUSH1 0x20 ADD PUSH1 0x0 KECCAK256 SWAP1 POP DUP1 PUSH1 0x1 ADD PUSH1 0x0 SWAP1 SLOAD SWAP1 PUSH2 0x100 EXP SWAP1 DIV PUSH20 0xFFFFFFFFFFFFFFFFFFFFFFFFFFFFFFFFFFFFFFFF AND PUSH20 0xFFFFFFFFFFFFFFFFFFFFFFFFFFFFFFFFFFFFFFFF AND CALLER PUSH20 0xFFFFFFFFFFFFFFFFFFFFFFFFFFFFFFFFFFFFFFFF AND EQ PUSH2 0x6C5 JUMPI PUSH1 0x40 MLOAD PUSH32 0x8C379A000000000000000000000000000000000000000000000000000000000 DUP2 MSTORE PUSH1 0x4 ADD PUSH2 0x6BC SWAP1 PUSH2 0x1B41 JUMP JUMPDEST PUSH1 0x40 MLOAD DUP1 SWAP2 SUB SWAP1 REVERT JUMPDEST DUP1 PUSH1 0x1 ADD PUSH1 0x14 SWAP1 SLOAD SWAP1 PUSH2 0x100 EXP SWAP1 DIV PUSH1 0xFF AND PUSH2 0x716 JUMPI PUSH1 0x40 MLOAD PUSH32 0x8C379A000000000000000000000000000000000000000000000000000000000 DUP2 MSTORE PUSH1 0x4 ADD PUSH2 0x70D SWAP1 PUSH2 0x18BD JUMP JUMPDEST PUSH1 0x40 MLOAD DUP1 SWAP2 SUB SWAP1 REVERT JUMPDEST DUP1 PUSH1 0x4 ADD PUSH1 0x0 DUP4 PUSH20 0xFFFFFFFFFFFFFFFFFFFFFFFFFFFFFFFFFFFFFFFF AND PUSH20 0xFFFFFFFFFFFFFFFFFFFFFFFFFFFFFFFFFFFFFFFF AND DUP2 MSTORE PUSH1 0x20 ADD SWAP1 DUP2 MSTORE PUSH1 0x20 ADD PUSH1 0x0 KECCAK256 PUSH1 0x0 ADD PUSH1 0x0 SWAP1 SLOAD SWAP1 PUSH2 0x100 EXP SWAP1 DIV PUSH1 0xFF AND ISZERO PUSH2 0x7A8 JUMPI PUSH1 0x40 MLOAD PUSH32 0x8C379A000000000000000000000000000000000000000000000000000000000 DUP2 MSTORE PUSH1 0x4 ADD PUSH2 0x79F SWAP1 PUSH2 0x1BAD JUMP JUMPDEST PUSH1 0x40 MLOAD DUP1 SWAP2 SUB SWAP1 REVERT JUMPDEST PUSH1 0x40 MLOAD DUP1 PUSH1 0x40 ADD PUSH1 0x40 MSTORE DUP1 PUSH1 0x1 ISZERO ISZERO DUP2 MSTORE PUSH1 0x20 ADD PUSH1 0x0 ISZERO ISZERO DUP2 MSTORE POP DUP2 PUSH1 0x4 ADD PUSH1 0x0 DUP5 PUSH20 0xFFFFFFFFFFFFFFFFFFFFFFFFFFFFFFFFFFFFFFFF AND PUSH20 0xFFFFFFFFFFFFFFFFFFFFFFFFFFFFFFFFFFFFFFFF AND DUP2 MSTORE PUSH1 0x20 ADD SWAP1 DUP2 MSTORE PUSH1 0x20 ADD PUSH1 0x0 KECCAK256 PUSH1 0x0 DUP3 ADD MLOAD DUP2 PUSH1 0x0 ADD PUSH1 0x0 PUSH2 0x100 EXP DUP2 SLOAD DUP2 PUSH1 0xFF MUL NOT AND SWAP1 DUP4 ISZERO ISZERO MUL OR SWAP1 SSTORE POP PUSH1 0x20 DUP3 ADD MLOAD DUP2 PUSH1 0x0 ADD PUSH1 0x1 PUSH2 0x100 EXP DUP2 SLOAD DUP2 PUSH1 0xFF MUL NOT AND SWAP1 DUP4 ISZERO ISZERO MUL OR SWAP1 SSTORE POP SWAP1 POP POP DUP1 PUSH1 0x5 ADD DUP3 SWAP1 DUP1 PUSH1 0x1 DUP2 SLOAD ADD DUP1 DUP3 SSTORE DUP1 SWAP2 POP POP PUSH1 0x1 SWAP1 SUB SWAP1 PUSH1 0x0 MSTORE PUSH1 0x20 PUSH1 0x0 KECCAK256 ADD PUSH1 0x0 SWAP1 SWAP2 SWAP1 SWAP2 SWAP1 SWAP2 PUSH2 0x100 EXP DUP2 SLOAD DUP2 PUSH20 0xFFFFFFFFFFFFFFFFFFFFFFFFFFFFFFFFFFFFFFFF MUL NOT AND SWAP1 DUP4 PUSH20 0xFFFFFFFFFFFFFFFFFFFFFFFFFFFFFFFFFFFFFFFF AND MUL OR SWAP1 SSTORE POP PUSH32 0xBE03F66069CBBE16C325546C4CF7A8D334AB3BAA0A1E50AD1B5955CF7565F514 DUP4 DUP4 PUSH1 0x40 MLOAD PUSH2 0x8DD SWAP3 SWAP2 SWAP1 PUSH2 0x1BCD JUMP JUMPDEST PUSH1 0x40 MLOAD DUP1 SWAP2 SUB SWAP1 LOG1 POP POP POP JUMP JUMPDEST PUSH1 0x0 PUSH1 0x3 PUSH1 0x0 CALLER PUSH20 0xFFFFFFFFFFFFFFFFFFFFFFFFFFFFFFFFFFFFFFFF AND PUSH20 0xFFFFFFFFFFFFFFFFFFFFFFFFFFFFFFFFFFFFFFFF AND DUP2 MSTORE PUSH1 0x20 ADD SWAP1 DUP2 MSTORE PUSH1 0x20 ADD PUSH1 0x0 KECCAK256 PUSH1 0x0 SWAP1 SLOAD SWAP1 PUSH2 0x100 EXP SWAP1 DIV PUSH1 0xFF AND PUSH2 0x978 JUMPI PUSH1 0x40 MLOAD PUSH32 0x8C379A000000000000000000000000000000000000000000000000000000000 DUP2 MSTORE PUSH1 0x4 ADD PUSH2 0x96F SWAP1 PUSH2 0x1C68 JUMP JUMPDEST PUSH1 0x40 MLOAD DUP1 SWAP2 SUB SWAP1 REVERT JUMPDEST PUSH1 0x2 PUSH1 0x0 DUP2 SLOAD DUP1 SWAP3 SWAP2 SWAP1 PUSH2 0x98B SWAP1 PUSH2 0x1A50 JUMP JUMPDEST SWAP2 SWAP1 POP SSTORE POP PUSH1 0x0 PUSH1 0x1 PUSH1 0x0 PUSH1 0x2 SLOAD DUP2 MSTORE PUSH1 0x20 ADD SWAP1 DUP2 MSTORE PUSH1 0x20 ADD PUSH1 0x0 KECCAK256 SWAP1 POP DUP3 DUP2 PUSH1 0x0 ADD SWAP1 DUP2 PUSH2 0x9BA SWAP2 SWAP1 PUSH2 0x1E94 JUMP JUMPDEST POP CALLER DUP2 PUSH1 0x1 ADD PUSH1 0x0 PUSH2 0x100 EXP DUP2 SLOAD DUP2 PUSH20 0xFFFFFFFFFFFFFFFFFFFFFFFFFFFFFFFFFFFFFFFF MUL NOT AND SWAP1 DUP4 PUSH20 0xFFFFFFFFFFFFFFFFFFFFFFFFFFFFFFFFFFFFFFFF AND MUL OR SWAP1 SSTORE POP PUSH1 0x1 DUP2 PUSH1 0x1 ADD PUSH1 0x14 PUSH2 0x100 EXP DUP2 SLOAD DUP2 PUSH1 0xFF MUL NOT AND SWAP1 DUP4 ISZERO ISZERO MUL OR SWAP1 SSTORE POP PUSH32 0x86A3370600C4089C572E5FA1F974825253DA2BE6295EB9E0EEF3423AEBD991B0 PUSH1 0x2 SLOAD DUP5 CALLER PUSH1 0x40 MLOAD PUSH2 0xA50 SWAP4 SWAP3 SWAP2 SWAP1 PUSH2 0x1F66 JUMP JUMPDEST PUSH1 0x40 MLOAD DUP1 SWAP2 SUB SWAP1 LOG1 PUSH1 0x2 SLOAD SWAP2 POP POP SWAP2 SWAP1 POP JUMP JUMPDEST PUSH1 0x0 PUSH1 0x1 PUSH1 0x0 DUP5 DUP2 MSTORE PUSH1 0x20 ADD SWAP1 DUP2 MSTORE PUSH1 0x20 ADD PUSH1 0x0 KECCAK256 SWAP1 POP DUP1 PUSH1 0x1 ADD PUSH1 0x0 SWAP1 SLOAD SWAP1 PUSH2 0x100 EXP SWAP1 DIV PUSH20 0xFFFFFFFFFFFFFFFFFFFFFFFFFFFFFFFFFFFFFFFF AND PUSH20 0xFFFFFFFFFFFFFFFFFFFFFFFFFFFFFFFFFFFFFFFF AND CALLER PUSH20 0xFFFFFFFFFFFFFFFFFFFFFFFFFFFFFFFFFFFFFFFF AND EQ PUSH2 0xB0C JUMPI PUSH1 0x40 MLOAD PUSH32 0x8C379A000000000000000000000000000000000000000000000000000000000 DUP2 MSTORE PUSH1 0x4 ADD PUSH2 0xB03 SWAP1 PUSH2 0x2016 JUMP JUMPDEST PUSH1 0x40 MLOAD DUP1 SWAP2 SUB SWAP1 REVERT JUMPDEST DUP1 PUSH1 0x1 ADD PUSH1 0x14 SWAP1 SLOAD SWAP1 PUSH2 0x100 EXP SWAP1 DIV PUSH1 0xFF AND PUSH2 0xB5D JUMPI PUSH1 0x40 MLOAD PUSH32 0x8C379A000000000000000000000000000000000000000000000000000000000 DUP2 MSTORE PUSH1 0x4 ADD PUSH2 0xB54 SWAP1 PUSH2 0x18BD JUMP JUMPDEST PUSH1 0x40 MLOAD DUP1 SWAP2 SUB SWAP1 REVERT JUMPDEST DUP1 PUSH1 0x2 ADD PUSH1 0x0 DUP4 PUSH20 0xFFFFFFFFFFFFFFFFFFFFFFFFFFFFFFFFFFFFFFFF AND PUSH20 0xFFFFFFFFFFFFFFFFFFFFFFFFFFFFFFFFFFFFFFFF AND DUP2 MSTORE PUSH1 0x20 ADD SWAP1 DUP2 MSTORE PUSH1 0x20 ADD PUSH1 0x0 KECCAK256 PUSH1 0x0 ADD PUSH1 0x0 SWAP1 SLOAD SWAP1 PUSH2 0x100 EXP SWAP1 DIV PUSH1 0xFF AND ISZERO PUSH2 0xBEF JUMPI PUSH1 0x40 MLOAD PUSH32 0x8C379A000000000000000000000000000000000000000000000000000000000 DUP2 MSTORE PUSH1 0x4 ADD PUSH2 0xBE6 SWAP1 PUSH2 0x2082 JUMP JUMPDEST PUSH1 0x40 MLOAD DUP1 SWAP2 SUB SWAP1 REVERT JUMPDEST PUSH1 0x40 MLOAD DUP1 PUSH1 0x40 ADD PUSH1 0x40 MSTORE DUP1 PUSH1 0x1 ISZERO ISZERO DUP2 MSTORE PUSH1 0x20 ADD PUSH1 0x0 DUP2 MSTORE POP DUP2 PUSH1 0x2 ADD PUSH1 0x0 DUP5 PUSH20 0xFFFFFFFFFFFFFFFFFFFFFFFFFFFFFFFFFFFFFFFF AND PUSH20 0xFFFFFFFFFFFFFFFFFFFFFFFFFFFFFFFFFFFFFFFF AND DUP2 MSTORE PUSH1 0x20 ADD SWAP1 DUP2 MSTORE PUSH1 0x20 ADD PUSH1 0x0 KECCAK256 PUSH1 0x0 DUP3 ADD MLOAD DUP2 PUSH1 0x0 ADD PUSH1 0x0 PUSH2 0x100 EXP DUP2 SLOAD DUP2 PUSH1 0xFF MUL NOT AND SWAP1 DUP4 ISZERO ISZERO MUL OR SWAP1 SSTORE POP PUSH1 0x20 DUP3 ADD MLOAD DUP2 PUSH1 0x1 ADD SSTORE SWAP1 POP POP DUP1 PUSH1 0x3 ADD DUP3 SWAP1 DUP1 PUSH1 0x1 DUP2 SLOAD ADD DUP1 DUP3 SSTORE DUP1 SWAP2 POP POP PUSH1 0x1 SWAP1 SUB SWAP1 PUSH1 0x0 MSTORE PUSH1 0x20 PUSH1 0x0 KECCAK256 ADD PUSH1 0x0 SWAP1 SWAP2 SWAP1 SWAP2 SWAP1 SWAP2 PUSH2 0x100 EXP DUP2 SLOAD DUP2 PUSH20 0xFFFFFFFFFFFFFFFFFFFFFFFFFFFFFFFFFFFFFFFF MUL NOT AND SWAP1 DUP4 PUSH20 0xFFFFFFFFFFFFFFFFFFFFFFFFFFFFFFFFFFFFFFFF AND MUL OR SWAP1 SSTORE POP PUSH32 0xAE67715E53B8E1EE028F0B9CDDBC208BE7D0889701D1BA0EC4414BAEAF37B2EB DUP4 DUP4 PUSH1 0x40 MLOAD PUSH2 0xD0C SWAP3 SWAP2 SWAP1 PUSH2 0x1BCD JUMP JUMPDEST PUSH1 0x40 MLOAD DUP1 SWAP2 SUB SWAP1 LOG1 POP POP POP JUMP JUMPDEST PUSH1 0x60 PUSH1 0x0 PUSH1 0x1 PUSH1 0x0 DUP5 DUP2 MSTORE PUSH1 0x20 ADD SWAP1 DUP2 MSTORE PUSH1 0x20 ADD PUSH1 0x0 KECCAK256 SWAP1 POP DUP1 PUSH1 0x3 ADD DUP1 SLOAD DUP1 PUSH1 0x20 MUL PUSH1 0x20 ADD PUSH1 0x40 MLOAD SWAP1 DUP2 ADD PUSH1 0x40 MSTORE DUP1 SWAP3 SWAP2 SWAP1 DUP2 DUP2 MSTORE PUSH1 0x20 ADD DUP3 DUP1 SLOAD DUP1 ISZERO PUSH2 0xDB6 JUMPI PUSH1 0x20 MUL DUP3 ADD SWAP2 SWAP1 PUSH1 0x0 MSTORE PUSH1 0x20 PUSH1 0x0 KECCAK256 SWAP1 JUMPDEST DUP2 PUSH1 0x0 SWAP1 SLOAD SWAP1 PUSH2 0x100 EXP SWAP1 DIV PUSH20 0xFFFFFFFFFFFFFFFFFFFFFFFFFFFFFFFFFFFFFFFF AND PUSH20 0xFFFFFFFFFFFFFFFFFFFFFFFFFFFFFFFFFFFFFFFF AND DUP2 MSTORE PUSH1 0x20 ADD SWAP1 PUSH1 0x1 ADD SWAP1 DUP1 DUP4 GT PUSH2 0xD6C JUMPI JUMPDEST POP POP POP POP POP SWAP2 POP POP SWAP2 SWAP1 POP JUMP JUMPDEST PUSH1 0x0 DUP1 PUSH1 0x1 PUSH1 0x0 DUP5 DUP2 MSTORE PUSH1 0x20 ADD SWAP1 DUP2 MSTORE PUSH1 0x20 ADD PUSH1 0x0 KECCAK256 SWAP1 POP DUP1 PUSH1 0x1 ADD PUSH1 0x14 SWAP1 SLOAD SWAP1 PUSH2 0x100 EXP SWAP1 DIV PUSH1 0xFF AND ISZERO PUSH2 0xE2D JUMPI PUSH1 0x40 MLOAD PUSH32 0x8C379A000000000000000000000000000000000000000000000000000000000 DUP2 MSTORE PUSH1 0x4 ADD PUSH2 0xE24 SWAP1 PUSH2 0x20EE JUMP JUMPDEST PUSH1 0x40 MLOAD DUP1 SWAP2 SUB SWAP1 REVERT JUMPDEST PUSH1 0x0 DUP1 PUSH1 0x0 SWAP1 POP PUSH1 0x0 JUMPDEST DUP4 PUSH1 0x3 ADD DUP1 SLOAD SWAP1 POP DUP2 LT ISZERO PUSH2 0xF30 JUMPI PUSH1 0x0 DUP5 PUSH1 0x3 ADD DUP3 DUP2 SLOAD DUP2 LT PUSH2 0xE5E JUMPI PUSH2 0xE5D PUSH2 0x210E JUMP JUMPDEST JUMPDEST SWAP1 PUSH1 0x0 MSTORE PUSH1 0x20 PUSH1 0x0 KECCAK256 ADD PUSH1 0x0 SWAP1 SLOAD SWAP1 PUSH2 0x100 EXP SWAP1 DIV PUSH20 0xFFFFFFFFFFFFFFFFFFFFFFFFFFFFFFFFFFFFFFFF AND SWAP1 POP DUP3 DUP6 PUSH1 0x2 ADD PUSH1 0x0 DUP4 PUSH20 0xFFFFFFFFFFFFFFFFFFFFFFFFFFFFFFFFFFFFFFFF AND PUSH20 0xFFFFFFFFFFFFFFFFFFFFFFFFFFFFFFFFFFFFFFFF AND DUP2 MSTORE PUSH1 0x20 ADD SWAP1 DUP2 MSTORE PUSH1 0x20 ADD PUSH1 0x0 KECCAK256 PUSH1 0x1 ADD SLOAD GT ISZERO PUSH2 0xF22 JUMPI DUP5 PUSH1 0x2 ADD PUSH1 0x0 DUP3 PUSH20 0xFFFFFFFFFFFFFFFFFFFFFFFFFFFFFFFFFFFFFFFF AND PUSH20 0xFFFFFFFFFFFFFFFFFFFFFFFFFFFFFFFFFFFFFFFF AND DUP2 MSTORE PUSH1 0x20 ADD SWAP1 DUP2 MSTORE PUSH1 0x20 ADD PUSH1 0x0 KECCAK256 PUSH1 0x1 ADD SLOAD SWAP3 POP DUP1 SWAP4 POP JUMPDEST POP DUP1 DUP1 PUSH1 0x1 ADD SWAP2 POP POP PUSH2 0xE37 JUMP JUMPDEST POP DUP2 SWAP4 POP POP POP POP SWAP2 SWAP1 POP JUMP JUMPDEST PUSH1 0x1 PUSH1 0x20 MSTORE DUP1 PUSH1 0x0 MSTORE PUSH1 0x40 PUSH1 0x0 KECCAK256 PUSH1 0x0 SWAP2 POP SWAP1 POP DUP1 PUSH1 0x0 ADD DUP1 SLOAD PUSH2 0xF5F SWAP1 PUSH2 0x1CB7 JUMP JUMPDEST DUP1 PUSH1 0x1F ADD PUSH1 0x20 DUP1 SWAP2 DIV MUL PUSH1 0x20 ADD PUSH1 0x40 MLOAD SWAP1 DUP2 ADD PUSH1 0x40 MSTORE DUP1 SWAP3 SWAP2 SWAP1 DUP2 DUP2 MSTORE PUSH1 0x20 ADD DUP3 DUP1 SLOAD PUSH2 0xF8B SWAP1 PUSH2 0x1CB7 JUMP JUMPDEST DUP1 ISZERO PUSH2 0xFD8 JUMPI DUP1 PUSH1 0x1F LT PUSH2 0xFAD JUMPI PUSH2 0x100 DUP1 DUP4 SLOAD DIV MUL DUP4 MSTORE SWAP2 PUSH1 0x20 ADD SWAP2 PUSH2 0xFD8 JUMP JUMPDEST DUP3 ADD SWAP2 SWAP1 PUSH1 0x0 MSTORE PUSH1 0x20 PUSH1 0x0 KECCAK256 SWAP1 JUMPDEST DUP2 SLOAD DUP2 MSTORE SWAP1 PUSH1 0x1 ADD SWAP1 PUSH1 0x20 ADD DUP1 DUP4 GT PUSH2 0xFBB JUMPI DUP3 SWAP1 SUB PUSH1 0x1F AND DUP3 ADD SWAP2 JUMPDEST POP POP POP POP POP SWAP1 DUP1 PUSH1 0x1 ADD PUSH1 0x0 SWAP1 SLOAD SWAP1 PUSH2 0x100 EXP SWAP1 DIV PUSH20 0xFFFFFFFFFFFFFFFFFFFFFFFFFFFFFFFFFFFFFFFF AND SWAP1 DUP1 PUSH1 0x1 ADD PUSH1 0x14 SWAP1 SLOAD SWAP1 PUSH2 0x100 EXP SWAP1 DIV PUSH1 0xFF AND SWAP1 POP DUP4 JUMP JUMPDEST PUSH1 0x0 DUP1 PUSH1 0x1 PUSH1 0x0 DUP6 DUP2 MSTORE PUSH1 0x20 ADD SWAP1 DUP2 MSTORE PUSH1 0x20 ADD PUSH1 0x0 KECCAK256 SWAP1 POP DUP1 PUSH1 0x2 ADD PUSH1 0x0 DUP5 PUSH20 0xFFFFFFFFFFFFFFFFFFFFFFFFFFFFFFFFFFFFFFFF AND PUSH20 0xFFFFFFFFFFFFFFFFFFFFFFFFFFFFFFFFFFFFFFFF AND DUP2 MSTORE PUSH1 0x20 ADD SWAP1 DUP2 MSTORE PUSH1 0x20 ADD PUSH1 0x0 KECCAK256 PUSH1 0x1 ADD SLOAD SWAP2 POP POP SWAP3 SWAP2 POP POP JUMP JUMPDEST PUSH1 0x60 PUSH1 0x0 PUSH1 0x1 PUSH1 0x0 DUP5 DUP2 MSTORE PUSH1 0x20 ADD SWAP1 DUP2 MSTORE PUSH1 0x20 ADD PUSH1 0x0 KECCAK256 SWAP1 POP DUP1 PUSH1 0x5 ADD DUP1 SLOAD DUP1 PUSH1 0x20 MUL PUSH1 0x20 ADD PUSH1 0x40 MLOAD SWAP1 DUP2 ADD PUSH1 0x40 MSTORE DUP1 SWAP3 SWAP2 SWAP1 DUP2 DUP2 MSTORE PUSH1 0x20 ADD DUP3 DUP1 SLOAD DUP1 ISZERO PUSH2 0x111E JUMPI PUSH1 0x20 MUL DUP3 ADD SWAP2 SWAP1 PUSH1 0x0 MSTORE PUSH1 0x20 PUSH1 0x0 KECCAK256 SWAP1 JUMPDEST DUP2 PUSH1 0x0 SWAP1 SLOAD SWAP1 PUSH2 0x100 EXP SWAP1 DIV PUSH20 0xFFFFFFFFFFFFFFFFFFFFFFFFFFFFFFFFFFFFFFFF AND PUSH20 0xFFFFFFFFFFFFFFFFFFFFFFFFFFFFFFFFFFFFFFFF AND DUP2 MSTORE PUSH1 0x20 ADD SWAP1 PUSH1 0x1 ADD SWAP1 DUP1 DUP4 GT PUSH2 0x10D4 JUMPI JUMPDEST POP POP POP POP POP SWAP2 POP POP SWAP2 SWAP1 POP JUMP JUMPDEST PUSH1 0x2 SLOAD DUP2 JUMP JUMPDEST PUSH1 0x0 PUSH1 0x1 PUSH1 0x0 DUP4 DUP2 MSTORE PUSH1 0x20 ADD SWAP1 DUP2 MSTORE PUSH1 0x20 ADD PUSH1 0x0 KECCAK256 SWAP1 POP DUP1 PUSH1 0x1 ADD PUSH1 0x0 SWAP1 SLOAD SWAP1 PUSH2 0x100 EXP SWAP1 DIV PUSH20 0xFFFFFFFFFFFFFFFFFFFFFFFFFFFFFFFFFFFFFFFF AND PUSH20 0xFFFFFFFFFFFFFFFFFFFFFFFFFFFFFFFFFFFFFFFF AND CALLER PUSH20 0xFFFFFFFFFFFFFFFFFFFFFFFFFFFFFFFFFFFFFFFF AND EQ PUSH2 0x11DA JUMPI PUSH1 0x40 MLOAD PUSH32 0x8C379A000000000000000000000000000000000000000000000000000000000 DUP2 MSTORE PUSH1 0x4 ADD PUSH2 0x11D1 SWAP1 PUSH2 0x21AF JUMP JUMPDEST PUSH1 0x40 MLOAD DUP1 SWAP2 SUB SWAP1 REVERT JUMPDEST DUP1 PUSH1 0x1 ADD PUSH1 0x14 SWAP1 SLOAD SWAP1 PUSH2 0x100 EXP SWAP1 DIV PUSH1 0xFF AND PUSH2 0x122B JUMPI PUSH1 0x40 MLOAD PUSH32 0x8C379A000000000000000000000000000000000000000000000000000000000 DUP2 MSTORE PUSH1 0x4 ADD PUSH2 0x1222 SWAP1 PUSH2 0x221B JUMP JUMPDEST PUSH1 0x40 MLOAD DUP1 SWAP2 SUB SWAP1 REVERT JUMPDEST PUSH1 0x0 DUP2 PUSH1 0x1 ADD PUSH1 0x14 PUSH2 0x100 EXP DUP2 SLOAD DUP2 PUSH1 0xFF MUL NOT AND SWAP1 DUP4 ISZERO ISZERO MUL OR SWAP1 SSTORE POP POP POP JUMP JUMPDEST PUSH1 0x3 PUSH1 0x20 MSTORE DUP1 PUSH1 0x0 MSTORE PUSH1 0x40 PUSH1 0x0 KECCAK256 PUSH1 0x0 SWAP2 POP SLOAD SWAP1 PUSH2 0x100 EXP SWAP1 DIV PUSH1 0xFF AND DUP2 JUMP JUMPDEST PUSH1 0x0 DUP1 SLOAD SWAP1 PUSH2 0x100 EXP SWAP1 DIV PUSH20 0xFFFFFFFFFFFFFFFFFFFFFFFFFFFFFFFFFFFFFFFF AND PUSH20 0xFFFFFFFFFFFFFFFFFFFFFFFFFFFFFFFFFFFFFFFF AND CALLER PUSH20 0xFFFFFFFFFFFFFFFFFFFFFFFFFFFFFFFFFFFFFFFF AND EQ PUSH2 0x12FA JUMPI PUSH1 0x40 MLOAD PUSH32 0x8C379A000000000000000000000000000000000000000000000000000000000 DUP2 MSTORE PUSH1 0x4 ADD PUSH2 0x12F1 SWAP1 PUSH2 0x22AD JUMP JUMPDEST PUSH1 0x40 MLOAD DUP1 SWAP2 SUB SWAP1 REVERT JUMPDEST PUSH1 0x1 PUSH1 0x3 PUSH1 0x0 DUP4 PUSH20 0xFFFFFFFFFFFFFFFFFFFFFFFFFFFFFFFFFFFFFFFF AND PUSH20 0xFFFFFFFFFFFFFFFFFFFFFFFFFFFFFFFFFFFFFFFF AND DUP2 MSTORE PUSH1 0x20 ADD SWAP1 DUP2 MSTORE PUSH1 0x20 ADD PUSH1 0x0 KECCAK256 PUSH1 0x0 PUSH2 0x100 EXP DUP2 SLOAD DUP2 PUSH1 0xFF MUL NOT AND SWAP1 DUP4 ISZERO ISZERO MUL OR SWAP1 SSTORE POP POP JUMP JUMPDEST PUSH1 0x0 DUP1 SLOAD SWAP1 PUSH2 0x100 EXP SWAP1 DIV PUSH20 0xFFFFFFFFFFFFFFFFFFFFFFFFFFFFFFFFFFFFFFFF AND DUP2 JUMP JUMPDEST PUSH1 0x0 PUSH1 0x40 MLOAD SWAP1 POP SWAP1 JUMP JUMPDEST PUSH1 0x0 DUP1 REVERT JUMPDEST PUSH1 0x0 DUP1 REVERT JUMPDEST PUSH1 0x0 DUP2 SWAP1 POP SWAP2 SWAP1 POP JUMP JUMPDEST PUSH2 0x13A0 DUP2 PUSH2 0x138D JUMP JUMPDEST DUP2 EQ PUSH2 0x13AB JUMPI PUSH1 0x0 DUP1 REVERT JUMPDEST POP JUMP JUMPDEST PUSH1 0x0 DUP2 CALLDATALOAD SWAP1 POP PUSH2 0x13BD DUP2 PUSH2 0x1397 JUMP JUMPDEST SWAP3 SWAP2 POP POP JUMP JUMPDEST PUSH1 0x0 PUSH20 0xFFFFFFFFFFFFFFFFFFFFFFFFFFFFFFFFFFFFFFFF DUP3 AND SWAP1 POP SWAP2 SWAP1 POP JUMP JUMPDEST PUSH1 0x0 PUSH2 0x13EE DUP3 PUSH2 0x13C3 JUMP JUMPDEST SWAP1 POP SWAP2 SWAP1 POP JUMP JUMPDEST PUSH2 0x13FE DUP2 PUSH2 0x13E3 JUMP JUMPDEST DUP2 EQ PUSH2 0x1409 JUMPI PUSH1 0x0 DUP1 REVERT JUMPDEST POP JUMP JUMPDEST PUSH1 0x0 DUP2 CALLDATALOAD SWAP1 POP PUSH2 0x141B DUP2 PUSH2 0x13F5 JUMP JUMPDEST SWAP3 SWAP2 POP POP JUMP JUMPDEST PUSH1 0x0 DUP1 PUSH1 0x40 DUP4 DUP6 SUB SLT ISZERO PUSH2 0x1438 JUMPI PUSH2 0x1437 PUSH2 0x1383 JUMP JUMPDEST JUMPDEST PUSH1 0x0 PUSH2 0x1446 DUP6 DUP3 DUP7 ADD PUSH2 0x13AE JUMP JUMPDEST SWAP3 POP POP PUSH1 0x20 PUSH2 0x1457 DUP6 DUP3 DUP7 ADD PUSH2 0x140C JUMP JUMPDEST SWAP2 POP POP SWAP3 POP SWAP3 SWAP1 POP JUMP JUMPDEST PUSH1 0x0 DUP1 REVERT JUMPDEST PUSH1 0x0 DUP1 REVERT JUMPDEST PUSH1 0x0 PUSH1 0x1F NOT PUSH1 0x1F DUP4 ADD AND SWAP1 POP SWAP2 SWAP1 POP JUMP JUMPDEST PUSH32 0x4E487B7100000000000000000000000000000000000000000000000000000000 PUSH1 0x0 MSTORE PUSH1 0x41 PUSH1 0x4 MSTORE PUSH1 0x24 PUSH1 0x0 REVERT JUMPDEST PUSH2 0x14B4 DUP3 PUSH2 0x146B JUMP JUMPDEST DUP2 ADD DUP2 DUP2 LT PUSH8 0xFFFFFFFFFFFFFFFF DUP3 GT OR ISZERO PUSH2 0x14D3 JUMPI PUSH2 0x14D2 PUSH2 0x147C JUMP JUMPDEST JUMPDEST DUP1 PUSH1 0x40 MSTORE POP POP POP JUMP JUMPDEST PUSH1 0x0 PUSH2 0x14E6 PUSH2 0x1379 JUMP JUMPDEST SWAP1 POP PUSH2 0x14F2 DUP3 DUP3 PUSH2 0x14AB JUMP JUMPDEST SWAP2 SWAP1 POP JUMP JUMPDEST PUSH1 0x0 PUSH8 0xFFFFFFFFFFFFFFFF DUP3 GT ISZERO PUSH2 0x1512 JUMPI PUSH2 0x1511 PUSH2 0x147C JUMP JUMPDEST JUMPDEST PUSH2 0x151B DUP3 PUSH2 0x146B JUMP JUMPDEST SWAP1 POP PUSH1 0x20 DUP2 ADD SWAP1 POP SWAP2 SWAP1 POP JUMP JUMPDEST DUP3 DUP2 DUP4 CALLDATACOPY PUSH1 0x0 DUP4 DUP4 ADD MSTORE POP POP POP JUMP JUMPDEST PUSH1 0x0 PUSH2 0x154A PUSH2 0x1545 DUP5 PUSH2 0x14F7 JUMP JUMPDEST PUSH2 0x14DC JUMP JUMPDEST SWAP1 POP DUP3 DUP2 MSTORE PUSH1 0x20 DUP2 ADD DUP5 DUP5 DUP5 ADD GT ISZERO PUSH2 0x1566 JUMPI PUSH2 0x1565 PUSH2 0x1466 JUMP JUMPDEST JUMPDEST PUSH2 0x1571 DUP5 DUP3 DUP6 PUSH2 0x1528 JUMP JUMPDEST POP SWAP4 SWAP3 POP POP POP JUMP JUMPDEST PUSH1 0x0 DUP3 PUSH1 0x1F DUP4 ADD SLT PUSH2 0x158E JUMPI PUSH2 0x158D PUSH2 0x1461 JUMP JUMPDEST JUMPDEST DUP2 CALLDATALOAD PUSH2 0x159E DUP5 DUP3 PUSH1 0x20 DUP7 ADD PUSH2 0x1537 JUMP JUMPDEST SWAP2 POP POP SWAP3 SWAP2 POP POP JUMP JUMPDEST PUSH1 0x0 PUSH1 0x20 DUP3 DUP5 SUB SLT ISZERO PUSH2 0x15BD JUMPI PUSH2 0x15BC PUSH2 0x1383 JUMP JUMPDEST JUMPDEST PUSH1 0x0 DUP3 ADD CALLDATALOAD PUSH8 0xFFFFFFFFFFFFFFFF DUP2 GT ISZERO PUSH2 0x15DB JUMPI PUSH2 0x15DA PUSH2 0x1388 JUMP JUMPDEST JUMPDEST PUSH2 0x15E7 DUP5 DUP3 DUP6 ADD PUSH2 0x1579 JUMP JUMPDEST SWAP2 POP POP SWAP3 SWAP2 POP POP JUMP JUMPDEST PUSH2 0x15F9 DUP2 PUSH2 0x138D JUMP JUMPDEST DUP3 MSTORE POP POP JUMP JUMPDEST PUSH1 0x0 PUSH1 0x20 DUP3 ADD SWAP1 POP PUSH2 0x1614 PUSH1 0x0 DUP4 ADD DUP5 PUSH2 0x15F0 JUMP JUMPDEST SWAP3 SWAP2 POP POP JUMP JUMPDEST PUSH1 0x0 PUSH1 0x20 DUP3 DUP5 SUB SLT ISZERO PUSH2 0x1630 JUMPI PUSH2 0x162F PUSH2 0x1383 JUMP JUMPDEST JUMPDEST PUSH1 0x0 PUSH2 0x163E DUP5 DUP3 DUP6 ADD PUSH2 0x13AE JUMP JUMPDEST SWAP2 POP POP SWAP3 SWAP2 POP POP JUMP JUMPDEST PUSH1 0x0 DUP2 MLOAD SWAP1 POP SWAP2 SWAP1 POP JUMP JUMPDEST PUSH1 0x0 DUP3 DUP3 MSTORE PUSH1 0x20 DUP3 ADD SWAP1 POP SWAP3 SWAP2 POP POP JUMP JUMPDEST PUSH1 0x0 DUP2 SWAP1 POP PUSH1 0x20 DUP3 ADD SWAP1 POP SWAP2 SWAP1 POP JUMP JUMPDEST PUSH2 0x167C DUP2 PUSH2 0x13E3 JUMP JUMPDEST DUP3 MSTORE POP POP JUMP JUMPDEST PUSH1 0x0 PUSH2 0x168E DUP4 DUP4 PUSH2 0x1673 JUMP JUMPDEST PUSH1 0x20 DUP4 ADD SWAP1 POP SWAP3 SWAP2 POP POP JUMP JUMPDEST PUSH1 0x0 PUSH1 0x20 DUP3 ADD SWAP1 POP SWAP2 SWAP1 POP JUMP JUMPDEST PUSH1 0x0 PUSH2 0x16B2 DUP3 PUSH2 0x1647 JUMP JUMPDEST PUSH2 0x16BC DUP2 DUP6 PUSH2 0x1652 JUMP JUMPDEST SWAP4 POP PUSH2 0x16C7 DUP4 PUSH2 0x1663 JUMP JUMPDEST DUP1 PUSH1 0x0 JUMPDEST DUP4 DUP2 LT ISZERO PUSH2 0x16F8 JUMPI DUP2 MLOAD PUSH2 0x16DF DUP9 DUP3 PUSH2 0x1682 JUMP JUMPDEST SWAP8 POP PUSH2 0x16EA DUP4 PUSH2 0x169A JUMP JUMPDEST SWAP3 POP POP PUSH1 0x1 DUP2 ADD SWAP1 POP PUSH2 0x16CB JUMP JUMPDEST POP DUP6 SWAP4 POP POP POP POP SWAP3 SWAP2 POP POP JUMP JUMPDEST PUSH1 0x0 PUSH1 0x20 DUP3 ADD SWAP1 POP DUP2 DUP2 SUB PUSH1 0x0 DUP4 ADD MSTORE PUSH2 0x171F DUP2 DUP5 PUSH2 0x16A7 JUMP JUMPDEST SWAP1 POP SWAP3 SWAP2 POP POP JUMP JUMPDEST PUSH2 0x1730 DUP2 PUSH2 0x13E3 JUMP JUMPDEST DUP3 MSTORE POP POP JUMP JUMPDEST PUSH1 0x0 PUSH1 0x20 DUP3 ADD SWAP1 POP PUSH2 0x174B PUSH1 0x0 DUP4 ADD DUP5 PUSH2 0x1727 JUMP JUMPDEST SWAP3 SWAP2 POP POP JUMP JUMPDEST PUSH1 0x0 DUP2 MLOAD SWAP1 POP SWAP2 SWAP1 POP JUMP JUMPDEST PUSH1 0x0 DUP3 DUP3 MSTORE PUSH1 0x20 DUP3 ADD SWAP1 POP SWAP3 SWAP2 POP POP JUMP JUMPDEST PUSH1 0x0 JUMPDEST DUP4 DUP2 LT ISZERO PUSH2 0x178B JUMPI DUP1 DUP3 ADD MLOAD DUP2 DUP5 ADD MSTORE PUSH1 0x20 DUP2 ADD SWAP1 POP PUSH2 0x1770 JUMP JUMPDEST PUSH1 0x0 DUP5 DUP5 ADD MSTORE POP POP POP POP JUMP JUMPDEST PUSH1 0x0 PUSH2 0x17A2 DUP3 PUSH2 0x1751 JUMP JUMPDEST PUSH2 0x17AC DUP2 DUP6 PUSH2 0x175C JUMP JUMPDEST SWAP4 POP PUSH2 0x17BC DUP2 DUP6 PUSH1 0x20 DUP7 ADD PUSH2 0x176D JUMP JUMPDEST PUSH2 0x17C5 DUP2 PUSH2 0x146B JUMP JUMPDEST DUP5 ADD SWAP2 POP POP SWAP3 SWAP2 POP POP JUMP JUMPDEST PUSH1 0x0 DUP2 ISZERO ISZERO SWAP1 POP SWAP2 SWAP1 POP JUMP JUMPDEST PUSH2 0x17E5 DUP2 PUSH2 0x17D0 JUMP JUMPDEST DUP3 MSTORE POP POP JUMP JUMPDEST PUSH1 0x0 PUSH1 0x60 DUP3 ADD SWAP1 POP DUP2 DUP2 SUB PUSH1 0x0 DUP4 ADD MSTORE PUSH2 0x1805 DUP2 DUP7 PUSH2 0x1797 JUMP JUMPDEST SWAP1 POP PUSH2 0x1814 PUSH1 0x20 DUP4 ADD DUP6 PUSH2 0x1727 JUMP JUMPDEST PUSH2 0x1821 PUSH1 0x40 DUP4 ADD DUP5 PUSH2 0x17DC JUMP JUMPDEST SWAP5 SWAP4 POP POP POP POP JUMP JUMPDEST PUSH1 0x0 PUSH1 0x20 DUP3 DUP5 SUB SLT ISZERO PUSH2 0x183F JUMPI PUSH2 0x183E PUSH2 0x1383 JUMP JUMPDEST JUMPDEST PUSH1 0x0 PUSH2 0x184D DUP5 DUP3 DUP6 ADD PUSH2 0x140C JUMP JUMPDEST SWAP2 POP POP SWAP3 SWAP2 POP POP JUMP JUMPDEST PUSH1 0x0 PUSH1 0x20 DUP3 ADD SWAP1 POP PUSH2 0x186B PUSH1 0x0 DUP4 ADD DUP5 PUSH2 0x17DC JUMP JUMPDEST SWAP3 SWAP2 POP POP JUMP JUMPDEST PUSH32 0x456C656374696F6E206973206E6F742061637469766500000000000000000000 PUSH1 0x0 DUP3 ADD MSTORE POP JUMP JUMPDEST PUSH1 0x0 PUSH2 0x18A7 PUSH1 0x16 DUP4 PUSH2 0x175C JUMP JUMPDEST SWAP2 POP PUSH2 0x18B2 DUP3 PUSH2 0x1871 JUMP JUMPDEST PUSH1 0x20 DUP3 ADD SWAP1 POP SWAP2 SWAP1 POP JUMP JUMPDEST PUSH1 0x0 PUSH1 0x20 DUP3 ADD SWAP1 POP DUP2 DUP2 SUB PUSH1 0x0 DUP4 ADD MSTORE PUSH2 0x18D6 DUP2 PUSH2 0x189A JUMP JUMPDEST SWAP1 POP SWAP2 SWAP1 POP JUMP JUMPDEST PUSH32 0x596F7520617265206E6F7420616C6C6F77656420746F20766F74650000000000 PUSH1 0x0 DUP3 ADD MSTORE POP JUMP JUMPDEST PUSH1 0x0 PUSH2 0x1913 PUSH1 0x1B DUP4 PUSH2 0x175C JUMP JUMPDEST SWAP2 POP PUSH2 0x191E DUP3 PUSH2 0x18DD JUMP JUMPDEST PUSH1 0x20 DUP3 ADD SWAP1 POP SWAP2 SWAP1 POP JUMP JUMPDEST PUSH1 0x0 PUSH1 0x20 DUP3 ADD SWAP1 POP DUP2 DUP2 SUB PUSH1 0x0 DUP4 ADD MSTORE PUSH2 0x1942 DUP2 PUSH2 0x1906 JUMP JUMPDEST SWAP1 POP SWAP2 SWAP1 POP JUMP JUMPDEST PUSH32 0x596F75206861766520616C726561647920766F74656400000000000000000000 PUSH1 0x0 DUP3 ADD MSTORE POP JUMP JUMPDEST PUSH1 0x0 PUSH2 0x197F PUSH1 0x16 DUP4 PUSH2 0x175C JUMP JUMPDEST SWAP2 POP PUSH2 0x198A DUP3 PUSH2 0x1949 JUMP JUMPDEST PUSH1 0x20 DUP3 ADD SWAP1 POP SWAP2 SWAP1 POP JUMP JUMPDEST PUSH1 0x0 PUSH1 0x20 DUP3 ADD SWAP1 POP DUP2 DUP2 SUB PUSH1 0x0 DUP4 ADD MSTORE PUSH2 0x19AE DUP2 PUSH2 0x1972 JUMP JUMPDEST SWAP1 POP SWAP2 SWAP1 POP JUMP JUMPDEST PUSH32 0x496E76616C69642063616E646964617465000000000000000000000000000000 PUSH1 0x0 DUP3 ADD MSTORE POP JUMP JUMPDEST PUSH1 0x0 PUSH2 0x19EB PUSH1 0x11 DUP4 PUSH2 0x175C JUMP JUMPDEST SWAP2 POP PUSH2 0x19F6 DUP3 PUSH2 0x19B5 JUMP JUMPDEST PUSH1 0x20 DUP3 ADD SWAP1 POP SWAP2 SWAP1 POP JUMP JUMPDEST PUSH1 0x0 PUSH1 0x20 DUP3 ADD SWAP1 POP DUP2 DUP2 SUB PUSH1 0x0 DUP4 ADD MSTORE PUSH2 0x1A1A DUP2 PUSH2 0x19DE JUMP JUMPDEST SWAP1 POP SWAP2 SWAP1 POP JUMP JUMPDEST PUSH32 0x4E487B7100000000000000000000000000000000000000000000000000000000 PUSH1 0x0 MSTORE PUSH1 0x11 PUSH1 0x4 MSTORE PUSH1 0x24 PUSH1 0x0 REVERT JUMPDEST PUSH1 0x0 PUSH2 0x1A5B DUP3 PUSH2 0x138D JUMP JUMPDEST SWAP2 POP PUSH32 0xFFFFFFFFFFFFFFFFFFFFFFFFFFFFFFFFFFFFFFFFFFFFFFFFFFFFFFFFFFFFFFFF DUP3 SUB PUSH2 0x1A8D JUMPI PUSH2 0x1A8C PUSH2 0x1A21 JUMP JUMPDEST JUMPDEST PUSH1 0x1 DUP3 ADD SWAP1 POP SWAP2 SWAP1 POP JUMP JUMPDEST PUSH1 0x0 PUSH1 0x60 DUP3 ADD SWAP1 POP PUSH2 0x1AAD PUSH1 0x0 DUP4 ADD DUP7 PUSH2 0x15F0 JUMP JUMPDEST PUSH2 0x1ABA PUSH1 0x20 DUP4 ADD DUP6 PUSH2 0x1727 JUMP JUMPDEST PUSH2 0x1AC7 PUSH1 0x40 DUP4 ADD DUP5 PUSH2 0x1727 JUMP JUMPDEST SWAP5 SWAP4 POP POP POP POP JUMP JUMPDEST PUSH32 0x4F6E6C7920656C656374696F6E2063726561746F722063616E2061646420766F PUSH1 0x0 DUP3 ADD MSTORE PUSH32 0x7465727300000000000000000000000000000000000000000000000000000000 PUSH1 0x20 DUP3 ADD MSTORE POP JUMP JUMPDEST PUSH1 0x0 PUSH2 0x1B2B PUSH1 0x24 DUP4 PUSH2 0x175C JUMP JUMPDEST SWAP2 POP PUSH2 0x1B36 DUP3 PUSH2 0x1ACF JUMP JUMPDEST PUSH1 0x40 DUP3 ADD SWAP1 POP SWAP2 SWAP1 POP JUMP JUMPDEST PUSH1 0x0 PUSH1 0x20 DUP3 ADD SWAP1 POP DUP2 DUP2 SUB PUSH1 0x0 DUP4 ADD MSTORE PUSH2 0x1B5A DUP2 PUSH2 0x1B1E JUMP JUMPDEST SWAP1 POP SWAP2 SWAP1 POP JUMP JUMPDEST PUSH32 0x566F74657220616C726561647920616464656400000000000000000000000000 PUSH1 0x0 DUP3 ADD MSTORE POP JUMP JUMPDEST PUSH1 0x0 PUSH2 0x1B97 PUSH1 0x13 DUP4 PUSH2 0x175C JUMP JUMPDEST SWAP2 POP PUSH2 0x1BA2 DUP3 PUSH2 0x1B61 JUMP JUMPDEST PUSH1 0x20 DUP3 ADD SWAP1 POP SWAP2 SWAP1 POP JUMP JUMPDEST PUSH1 0x0 PUSH1 0x20 DUP3 ADD SWAP1 POP DUP2 DUP2 SUB PUSH1 0x0 DUP4 ADD MSTORE PUSH2 0x1BC6 DUP2 PUSH2 0x1B8A JUMP JUMPDEST SWAP1 POP SWAP2 SWAP1 POP JUMP JUMPDEST PUSH1 0x0 PUSH1 0x40 DUP3 ADD SWAP1 POP PUSH2 0x1BE2 PUSH1 0x0 DUP4 ADD DUP6 PUSH2 0x15F0 JUMP JUMPDEST PUSH2 0x1BEF PUSH1 0x20 DUP4 ADD DUP5 PUSH2 0x1727 JUMP JUMPDEST SWAP4 SWAP3 POP POP POP JUMP JUMPDEST PUSH32 0x4E6F7420616E20617574686F72697A656420656C656374696F6E206372656174 PUSH1 0x0 DUP3 ADD MSTORE PUSH32 0x6F72000000000000000000000000000000000000000000000000000000000000 PUSH1 0x20 DUP3 ADD MSTORE POP JUMP JUMPDEST PUSH1 0x0 PUSH2 0x1C52 PUSH1 0x22 DUP4 PUSH2 0x175C JUMP JUMPDEST SWAP2 POP PUSH2 0x1C5D DUP3 PUSH2 0x1BF6 JUMP JUMPDEST PUSH1 0x40 DUP3 ADD SWAP1 POP SWAP2 SWAP1 POP JUMP JUMPDEST PUSH1 0x0 PUSH1 0x20 DUP3 ADD SWAP1 POP DUP2 DUP2 SUB PUSH1 0x0 DUP4 ADD MSTORE PUSH2 0x1C81 DUP2 PUSH2 0x1C45 JUMP JUMPDEST SWAP1 POP SWAP2 SWAP1 POP JUMP JUMPDEST PUSH32 0x4E487B7100000000000000000000000000000000000000000000000000000000 PUSH1 0x0 MSTORE PUSH1 0x22 PUSH1 0x4 MSTORE PUSH1 0x24 PUSH1 0x0 REVERT JUMPDEST PUSH1 0x0 PUSH1 0x2 DUP3 DIV SWAP1 POP PUSH1 0x1 DUP3 AND DUP1 PUSH2 0x1CCF JUMPI PUSH1 0x7F DUP3 AND SWAP2 POP JUMPDEST PUSH1 0x20 DUP3 LT DUP2 SUB PUSH2 0x1CE2 JUMPI PUSH2 0x1CE1 PUSH2 0x1C88 JUMP JUMPDEST JUMPDEST POP SWAP2 SWAP1 POP JUMP JUMPDEST PUSH1 0x0 DUP2 SWAP1 POP DUP2 PUSH1 0x0 MSTORE PUSH1 0x20 PUSH1 0x0 KECCAK256 SWAP1 POP SWAP2 SWAP1 POP JUMP JUMPDEST PUSH1 0x0 PUSH1 0x20 PUSH1 0x1F DUP4 ADD DIV SWAP1 POP SWAP2 SWAP1 POP JUMP JUMPDEST PUSH1 0x0 DUP3 DUP3 SHL SWAP1 POP SWAP3 SWAP2 POP POP JUMP JUMPDEST PUSH1 0x0 PUSH1 0x8 DUP4 MUL PUSH2 0x1D4A PUSH32 0xFFFFFFFFFFFFFFFFFFFFFFFFFFFFFFFFFFFFFFFFFFFFFFFFFFFFFFFFFFFFFFFF DUP3 PUSH2 0x1D0D JUMP JUMPDEST PUSH2 0x1D54 DUP7 DUP4 PUSH2 0x1D0D JUMP JUMPDEST SWAP6 POP DUP1 NOT DUP5 AND SWAP4 POP DUP1 DUP7 AND DUP5 OR SWAP3 POP POP POP SWAP4 SWAP3 POP POP POP JUMP JUMPDEST PUSH1 0x0 DUP2 SWAP1 POP SWAP2 SWAP1 POP JUMP JUMPDEST PUSH1 0x0 PUSH2 0x1D91 PUSH2 0x1D8C PUSH2 0x1D87 DUP5 PUSH2 0x138D JUMP JUMPDEST PUSH2 0x1D6C JUMP JUMPDEST PUSH2 0x138D JUMP JUMPDEST SWAP1 POP SWAP2 SWAP1 POP JUMP JUMPDEST PUSH1 0x0 DUP2 SWAP1 POP SWAP2 SWAP1 POP JUMP JUMPDEST PUSH2 0x1DAB DUP4 PUSH2 0x1D76 JUMP JUMPDEST PUSH2 0x1DBF PUSH2 0x1DB7 DUP3 PUSH2 0x1D98 JUMP JUMPDEST DUP5 DUP5 SLOAD PUSH2 0x1D1A JUMP JUMPDEST DUP3 SSTORE POP POP POP POP JUMP JUMPDEST PUSH1 0x0 SWAP1 JUMP JUMPDEST PUSH2 0x1DD4 PUSH2 0x1DC7 JUMP JUMPDEST PUSH2 0x1DDF DUP2 DUP5 DUP5 PUSH2 0x1DA2 JUMP JUMPDEST POP POP POP JUMP JUMPDEST JUMPDEST DUP2 DUP2 LT ISZERO PUSH2 0x1E03 JUMPI PUSH2 0x1DF8 PUSH1 0x0 DUP3 PUSH2 0x1DCC JUMP JUMPDEST PUSH1 0x1 DUP2 ADD SWAP1 POP PUSH2 0x1DE5 JUMP JUMPDEST POP POP JUMP JUMPDEST PUSH1 0x1F DUP3 GT ISZERO PUSH2 0x1E48 JUMPI PUSH2 0x1E19 DUP2 PUSH2 0x1CE8 JUMP JUMPDEST PUSH2 0x1E22 DUP5 PUSH2 0x1CFD JUMP JUMPDEST DUP2 ADD PUSH1 0x20 DUP6 LT ISZERO PUSH2 0x1E31 JUMPI DUP2 SWAP1 POP JUMPDEST PUSH2 0x1E45 PUSH2 0x1E3D DUP6 PUSH2 0x1CFD JUMP JUMPDEST DUP4 ADD DUP3 PUSH2 0x1DE4 JUMP JUMPDEST POP POP JUMPDEST POP POP POP JUMP JUMPDEST PUSH1 0x0 DUP3 DUP3 SHR SWAP1 POP SWAP3 SWAP2 POP POP JUMP JUMPDEST PUSH1 0x0 PUSH2 0x1E6B PUSH1 0x0 NOT DUP5 PUSH1 0x8 MUL PUSH2 0x1E4D JUMP JUMPDEST NOT DUP1 DUP4 AND SWAP2 POP POP SWAP3 SWAP2 POP POP JUMP JUMPDEST PUSH1 0x0 PUSH2 0x1E84 DUP4 DUP4 PUSH2 0x1E5A JUMP JUMPDEST SWAP2 POP DUP3 PUSH1 0x2 MUL DUP3 OR SWAP1 POP SWAP3 SWAP2 POP POP JUMP JUMPDEST PUSH2 0x1E9D DUP3 PUSH2 0x1751 JUMP JUMPDEST PUSH8 0xFFFFFFFFFFFFFFFF DUP2 GT ISZERO PUSH2 0x1EB6 JUMPI PUSH2 0x1EB5 PUSH2 0x147C JUMP JUMPDEST JUMPDEST PUSH2 0x1EC0 DUP3 SLOAD PUSH2 0x1CB7 JUMP JUMPDEST PUSH2 0x1ECB DUP3 DUP3 DUP6 PUSH2 0x1E07 JUMP JUMPDEST PUSH1 0x0 PUSH1 0x20 SWAP1 POP PUSH1 0x1F DUP4 GT PUSH1 0x1 DUP2 EQ PUSH2 0x1EFE JUMPI PUSH1 0x0 DUP5 ISZERO PUSH2 0x1EEC JUMPI DUP3 DUP8 ADD MLOAD SWAP1 POP JUMPDEST PUSH2 0x1EF6 DUP6 DUP3 PUSH2 0x1E78 JUMP JUMPDEST DUP7 SSTORE POP PUSH2 0x1F5E JUMP JUMPDEST PUSH1 0x1F NOT DUP5 AND PUSH2 0x1F0C DUP7 PUSH2 0x1CE8 JUMP JUMPDEST PUSH1 0x0 JUMPDEST DUP3 DUP2 LT ISZERO PUSH2 0x1F34 JUMPI DUP5 DUP10 ADD MLOAD DUP3 SSTORE PUSH1 0x1 DUP3 ADD SWAP2 POP PUSH1 0x20 DUP6 ADD SWAP5 POP PUSH1 0x20 DUP2 ADD SWAP1 POP PUSH2 0x1F0F JUMP JUMPDEST DUP7 DUP4 LT ISZERO PUSH2 0x1F51 JUMPI DUP5 DUP10 ADD MLOAD PUSH2 0x1F4D PUSH1 0x1F DUP10 AND DUP3 PUSH2 0x1E5A JUMP JUMPDEST DUP4 SSTORE POP JUMPDEST PUSH1 0x1 PUSH1 0x2 DUP9 MUL ADD DUP9 SSTORE POP POP POP JUMPDEST POP POP POP POP POP POP JUMP JUMPDEST PUSH1 0x0 PUSH1 0x60 DUP3 ADD SWAP1 POP PUSH2 0x1F7B PUSH1 0x0 DUP4 ADD DUP7 PUSH2 0x15F0 JUMP JUMPDEST DUP2 DUP2 SUB PUSH1 0x20 DUP4 ADD MSTORE PUSH2 0x1F8D DUP2 DUP6 PUSH2 0x1797 JUMP JUMPDEST SWAP1 POP PUSH2 0x1F9C PUSH1 0x40 DUP4 ADD DUP5 PUSH2 0x1727 JUMP JUMPDEST SWAP5 SWAP4 POP POP POP POP JUMP JUMPDEST PUSH32 0x4F6E6C7920656C656374696F6E2063726561746F722063616E20616464206361 PUSH1 0x0 DUP3 ADD MSTORE PUSH32 0x6E64696461746573000000000000000000000000000000000000000000000000 PUSH1 0x20 DUP3 ADD MSTORE POP JUMP JUMPDEST PUSH1 0x0 PUSH2 0x2000 PUSH1 0x28 DUP4 PUSH2 0x175C JUMP JUMPDEST SWAP2 POP PUSH2 0x200B DUP3 PUSH2 0x1FA4 JUMP JUMPDEST PUSH1 0x40 DUP3 ADD SWAP1 POP SWAP2 SWAP1 POP JUMP JUMPDEST PUSH1 0x0 PUSH1 0x20 DUP3 ADD SWAP1 POP DUP2 DUP2 SUB PUSH1 0x0 DUP4 ADD MSTORE PUSH2 0x202F DUP2 PUSH2 0x1FF3 JUMP JUMPDEST SWAP1 POP SWAP2 SWAP1 POP JUMP JUMPDEST PUSH32 0x43616E64696461746520616C7265616479206164646564000000000000000000 PUSH1 0x0 DUP3 ADD MSTORE POP JUMP JUMPDEST PUSH1 0x0 PUSH2 0x206C PUSH1 0x17 DUP4 PUSH2 0x175C JUMP JUMPDEST SWAP2 POP PUSH2 0x2077 DUP3 PUSH2 0x2036 JUMP JUMPDEST PUSH1 0x20 DUP3 ADD SWAP1 POP SWAP2 SWAP1 POP JUMP JUMPDEST PUSH1 0x0 PUSH1 0x20 DUP3 ADD SWAP1 POP DUP2 DUP2 SUB PUSH1 0x0 DUP4 ADD MSTORE PUSH2 0x209B DUP2 PUSH2 0x205F JUMP JUMPDEST SWAP1 POP SWAP2 SWAP1 POP JUMP JUMPDEST PUSH32 0x456C656374696F6E206973207374696C6C206163746976650000000000000000 PUSH1 0x0 DUP3 ADD MSTORE POP JUMP JUMPDEST PUSH1 0x0 PUSH2 0x20D8 PUSH1 0x18 DUP4 PUSH2 0x175C JUMP JUMPDEST SWAP2 POP PUSH2 0x20E3 DUP3 PUSH2 0x20A2 JUMP JUMPDEST PUSH1 0x20 DUP3 ADD SWAP1 POP SWAP2 SWAP1 POP JUMP JUMPDEST PUSH1 0x0 PUSH1 0x20 DUP3 ADD SWAP1 POP DUP2 DUP2 SUB PUSH1 0x0 DUP4 ADD MSTORE PUSH2 0x2107 DUP2 PUSH2 0x20CB JUMP JUMPDEST SWAP1 POP SWAP2 SWAP1 POP JUMP JUMPDEST PUSH32 0x4E487B7100000000000000000000000000000000000000000000000000000000 PUSH1 0x0 MSTORE PUSH1 0x32 PUSH1 0x4 MSTORE PUSH1 0x24 PUSH1 0x0 REVERT JUMPDEST PUSH32 0x4F6E6C7920656C656374696F6E2063726561746F722063616E20656E64207468 PUSH1 0x0 DUP3 ADD MSTORE PUSH32 0x6520656C656374696F6E00000000000000000000000000000000000000000000 PUSH1 0x20 DUP3 ADD MSTORE POP JUMP JUMPDEST PUSH1 0x0 PUSH2 0x2199 PUSH1 0x2A DUP4 PUSH2 0x175C JUMP JUMPDEST SWAP2 POP PUSH2 0x21A4 DUP3 PUSH2 0x213D JUMP JUMPDEST PUSH1 0x40 DUP3 ADD SWAP1 POP SWAP2 SWAP1 POP JUMP JUMPDEST PUSH1 0x0 PUSH1 0x20 DUP3 ADD SWAP1 POP DUP2 DUP2 SUB PUSH1 0x0 DUP4 ADD MSTORE PUSH2 0x21C8 DUP2 PUSH2 0x218C JUMP JUMPDEST SWAP1 POP SWAP2 SWAP1 POP JUMP JUMPDEST PUSH32 0x456C656374696F6E20697320616C726561647920656E64656400000000000000 PUSH1 0x0 DUP3 ADD MSTORE POP JUMP JUMPDEST PUSH1 0x0 PUSH2 0x2205 PUSH1 0x19 DUP4 PUSH2 0x175C JUMP JUMPDEST SWAP2 POP PUSH2 0x2210 DUP3 PUSH2 0x21CF JUMP JUMPDEST PUSH1 0x20 DUP3 ADD SWAP1 POP SWAP2 SWAP1 POP JUMP JUMPDEST PUSH1 0x0 PUSH1 0x20 DUP3 ADD SWAP1 POP DUP2 DUP2 SUB PUSH1 0x0 DUP4 ADD MSTORE PUSH2 0x2234 DUP2 PUSH2 0x21F8 JUMP JUMPDEST SWAP1 POP SWAP2 SWAP1 POP JUMP JUMPDEST PUSH32 0x4F6E6C792061646D696E2063616E20706572666F726D20746869732061637469 PUSH1 0x0 DUP3 ADD MSTORE PUSH32 0x6F6E000000000000000000000000000000000000000000000000000000000000 PUSH1 0x20 DUP3 ADD MSTORE POP JUMP JUMPDEST PUSH1 0x0 PUSH2 0x2297 PUSH1 0x22 DUP4 PUSH2 0x175C JUMP JUMPDEST SWAP2 POP PUSH2 0x22A2 DUP3 PUSH2 0x223B JUMP JUMPDEST PUSH1 0x40 DUP3 ADD SWAP1 POP SWAP2 SWAP1 POP JUMP JUMPDEST PUSH1 0x0 PUSH1 0x20 DUP3 ADD SWAP1 POP DUP2 DUP2 SUB PUSH1 0x0 DUP4 ADD MSTORE PUSH2 0x22C6 DUP2 PUSH2 0x228A JUMP JUMPDEST SWAP1 POP SWAP2 SWAP1 POP JUMP INVALID LOG2 PUSH5 0x6970667358 0x22 SLT KECCAK256 PUSH23 0x9761B9D2E51D10D47662683388245A08706B87B0D1BD5A PUSH28 0x704565F85563EE64736F6C6343000818003300000000000000000000 "},"methodIdentifiers":{"addCandidate(uint256,address)":"33c57ccd","addVoter(uint256,address)":"09391321","admin()":"f851a440","authorizeCreator(address)":"d8625b07","authorizedCreators(address)":"c695502a","createElection(string)":"15cf4a5f","electionCount()":"997d2830","elections(uint256)":"5e6fef01","endElection(uint256)":"9c98bcbb","getCandidates(uint256)":"3e39a7a5","getVoters(uint256)":"86b646f2","getVotes(uint256,address)":"68197360","getWinner(uint256)":"4129b2c9","vote(uint256,address)":"02d947ef"}}}}}