{
  "_format": "hh-sol-artifact-1",
  "contractName": "ElectionManager",
  "sourceName": "contracts/election.sol",
  "abi": [
    {
      "inputs": [],
      "stateMutability": "nonpayable",
      "type": "constructor"
    },
    {
      "anonymous": false,
      "inputs": [
        {
          "indexed": false,
          "internalType": "uint256",
          "name": "electionId",
          "type": "uint256"
        },
        {
          "indexed": true,
          "internalType": "address",
          "name": "candidate",
          "type": "address"
        }
      ],
      "name": "CandidateAdded",
      "type": "event"
    },
    {
      "anonymous": false,
      "inputs": [
        {
          "indexed": false,
          "internalType": "uint256",
          "name": "electionId",
          "type": "uint256"
        },
        {
          "indexed": false,
          "internalType": "string",
          "name": "name",
          "type": "string"
        },
        {
          "indexed": true,
          "internalType": "address",
          "name": "creator",
          "type": "address"
        }
      ],
      "name": "ElectionCreated",
      "type": "event"
    },
    {
      "anonymous": false,
      "inputs": [
        {
          "indexed": false,
          "internalType": "uint256",
          "name": "electionId",
          "type": "uint256"
        },
        {
          "indexed": true,
          "internalType": "address",
          "name": "voter",
          "type": "address"
        },
        {
          "indexed": true,
          "internalType": "address",
          "name": "candidate",
          "type": "address"
        }
      ],
      "name": "VoteCast",
      "type": "event"
    },
    {
      "inputs": [
        {
          "internalType": "uint256",
          "name": "_electionId",
          "type": "uint256"
        },
        {
          "internalType": "address",
          "name": "_candidate",
          "type": "address"
        }
      ],
      "name": "addCandidate",
      "outputs": [],
      "stateMutability": "nonpayable",
      "type": "function"
    },
    {
      "inputs": [],
      "name": "admin",
      "outputs": [
        {
          "internalType": "address",
          "name": "",
          "type": "address"
        }
      ],
      "stateMutability": "view",
      "type": "function"
    },
    {
      "inputs": [
        {
          "internalType": "address",
          "name": "_creator",
          "type": "address"
        }
      ],
      "name": "authorizeCreator",
      "outputs": [],
      "stateMutability": "nonpayable",
      "type": "function"
    },
    {
      "inputs": [
        {
          "internalType": "address",
          "name": "",
          "type": "address"
        }
      ],
      "name": "authorizedCreators",
      "outputs": [
        {
          "internalType": "bool",
          "name": "",
          "type": "bool"
        }
      ],
      "stateMutability": "view",
      "type": "function"
    },
    {
      "inputs": [
        {
          "internalType": "string",
          "name": "_name",
          "type": "string"
        }
      ],
      "name": "createElection",
      "outputs": [
        {
          "internalType": "uint256",
          "name": "",
          "type": "uint256"
        }
      ],
      "stateMutability": "nonpayable",
      "type": "function"
    },
    {
      "inputs": [],
      "name": "electionCount",
      "outputs": [
        {
          "internalType": "uint256",
          "name": "",
          "type": "uint256"
        }
      ],
      "stateMutability": "view",
      "type": "function"
    },
    {
      "inputs": [
        {
          "internalType": "uint256",
          "name": "",
          "type": "uint256"
        }
      ],
      "name": "elections",
      "outputs": [
        {
          "internalType": "string",
          "name": "name",
          "type": "string"
        },
        {
          "internalType": "address",
          "name": "creator",
          "type": "address"
        },
        {
          "internalType": "bool",
          "name": "isActive",
          "type": "bool"
        }
      ],
      "stateMutability": "view",
      "type": "function"
    },
    {
      "inputs": [
        {
          "internalType": "uint256",
          "name": "_electionId",
          "type": "uint256"
        }
      ],
      "name": "endElection",
      "outputs": [],
      "stateMutability": "nonpayable",
      "type": "function"
    },
    {
      "inputs": [
        {
          "internalType": "uint256",
          "name": "_electionId",
          "type": "uint256"
        }
      ],
      "name": "getCandidates",
      "outputs": [
        {
          "internalType": "address[]",
          "name": "",
          "type": "address[]"
        }
      ],
      "stateMutability": "view",
      "type": "function"
    },
    {
      "inputs": [
        {
          "internalType": "uint256",
          "name": "_electionId",
          "type": "uint256"
        },
        {
          "internalType": "address",
          "name": "_candidate",
          "type": "address"
        }
      ],
      "name": "getVotes",
      "outputs": [
        {
          "internalType": "uint256",
          "name": "",
          "type": "uint256"
        }
      ],
      "stateMutability": "view",
      "type": "function"
    },
    {
      "inputs": [
        {
          "internalType": "uint256",
          "name": "_electionId",
          "type": "uint256"
        }
      ],
      "name": "getWinner",
      "outputs": [
        {
          "internalType": "address",
          "name": "",
          "type": "address"
        }
      ],
      "stateMutability": "view",
      "type": "function"
    },
    {
      "inputs": [
        {
          "internalType": "uint256",
          "name": "_electionId",
          "type": "uint256"
        },
        {
          "internalType": "address",
          "name": "_candidate",
          "type": "address"
        }
      ],
      "name": "vote",
      "outputs": [],
      "stateMutability": "nonpayable",
      "type": "function"
    }
  ],
  "bytecode": "0x608060405234801561001057600080fd5b50336000806101000a81548173ffffffffffffffffffffffffffffffffffffffff021916908373ffffffffffffffffffffffffffffffffffffffff1602179055506001600360003373ffffffffffffffffffffffffffffffffffffffff1673ffffffffffffffffffffffffffffffffffffffff16815260200190815260200160002060006101000a81548160ff021916908315150217905550611c0d806100b86000396000f3fe608060405234801561001057600080fd5b50600436106100b45760003560e01c8063681973601161007157806368197360146101b3578063997d2830146101e35780639c98bcbb14610201578063c695502a1461021d578063d8625b071461024d578063f851a44014610269576100b4565b806302d947ef146100b957806315cf4a5f146100d557806333c57ccd146101055780633e39a7a5146101215780634129b2c9146101515780635e6fef0114610181575b600080fd5b6100d360048036038101906100ce9190611007565b610287565b005b6100ef60048036038101906100ea919061118d565b61054c565b6040516100fc91906111e5565b60405180910390f35b61011f600480360381019061011a9190611007565b6106da565b005b61013b60048036038101906101369190611200565b6109a5565b60405161014891906112eb565b60405180910390f35b61016b60048036038101906101669190611200565b610a4f565b604051610178919061131c565b60405180910390f35b61019b60048036038101906101969190611200565b610bcc565b6040516101aa939291906113d1565b60405180910390f35b6101cd60048036038101906101c89190611007565b610cab565b6040516101da91906111e5565b60405180910390f35b6101eb610d11565b6040516101f891906111e5565b60405180910390f35b61021b60048036038101906102169190611200565b610d17565b005b6102376004803603810190610232919061140f565b610e32565b604051610244919061143c565b60405180910390f35b6102676004803603810190610262919061140f565b610e52565b005b610271610f3b565b60405161027e919061131c565b60405180910390f35b60006001600084815260200190815260200160002090508060010160149054906101000a900460ff166102ef576040517f08c379a00000000000000000000000000000000000000000000000000000000081526004016102e6906114a3565b60405180910390fd5b8060040160003373ffffffffffffffffffffffffffffffffffffffff1673ffffffffffffffffffffffffffffffffffffffff16815260200190815260200160002060000160009054906101000a900460ff1615610381576040517f08c379a00000000000000000000000000000000000000000000000000000000081526004016103789061150f565b60405180910390fd5b8060020160008373ffffffffffffffffffffffffffffffffffffffff1673ffffffffffffffffffffffffffffffffffffffff16815260200190815260200160002060000160009054906101000a900460ff16610412576040517f08c379a00000000000000000000000000000000000000000000000000000000081526004016104099061157b565b60405180910390fd5b8060020160008373ffffffffffffffffffffffffffffffffffffffff1673ffffffffffffffffffffffffffffffffffffffff1681526020019081526020016000206001016000815480929190610467906115ca565b91905055506040518060200160405280600115158152508160040160003373ffffffffffffffffffffffffffffffffffffffff1673ffffffffffffffffffffffffffffffffffffffff16815260200190815260200160002060008201518160000160006101000a81548160ff0219169083151502179055509050508173ffffffffffffffffffffffffffffffffffffffff163373ffffffffffffffffffffffffffffffffffffffff167fcfff1651bcea794952a516ce970ab17518a85210bd939aaeaac670a8d3e65ec78560405161053f91906111e5565b60405180910390a3505050565b6000600360003373ffffffffffffffffffffffffffffffffffffffff1673ffffffffffffffffffffffffffffffffffffffff16815260200190815260200160002060009054906101000a900460ff166105da576040517f08c379a00000000000000000000000000000000000000000000000000000000081526004016105d19061165e565b60405180910390fd5b600260008154809291906105ed906115ca565b9190505550600060016000600254815260200190815260200160002090508281600001908161061c919061188a565b50338160010160006101000a81548173ffffffffffffffffffffffffffffffffffffffff021916908373ffffffffffffffffffffffffffffffffffffffff16021790555060018160010160146101000a81548160ff0219169083151502179055503373ffffffffffffffffffffffffffffffffffffffff167f86a3370600c4089c572e5fa1f974825253da2be6295eb9e0eef3423aebd991b0600254856040516106c792919061195c565b60405180910390a2600254915050919050565b60006001600084815260200190815260200160002090508060010160009054906101000a900473ffffffffffffffffffffffffffffffffffffffff1673ffffffffffffffffffffffffffffffffffffffff163373ffffffffffffffffffffffffffffffffffffffff1614610783576040517f08c379a000000000000000000000000000000000000000000000000000000000815260040161077a906119d8565b60405180910390fd5b8060010160149054906101000a900460ff166107d4576040517f08c379a00000000000000000000000000000000000000000000000000000000081526004016107cb906114a3565b60405180910390fd5b8060020160008373ffffffffffffffffffffffffffffffffffffffff1673ffffffffffffffffffffffffffffffffffffffff16815260200190815260200160002060000160009054906101000a900460ff1615610866576040517f08c379a000000000000000000000000000000000000000000000000000000000815260040161085d90611a44565b60405180910390fd5b604051806040016040528060011515815260200160008152508160020160008473ffffffffffffffffffffffffffffffffffffffff1673ffffffffffffffffffffffffffffffffffffffff16815260200190815260200160002060008201518160000160006101000a81548160ff0219169083151502179055506020820151816001015590505080600301829080600181540180825580915050600190039060005260206000200160009091909190916101000a81548173ffffffffffffffffffffffffffffffffffffffff021916908373ffffffffffffffffffffffffffffffffffffffff1602179055508173ffffffffffffffffffffffffffffffffffffffff167fae67715e53b8e1ee028f0b9cddbc208be7d0889701d1ba0ec4414baeaf37b2eb8460405161099891906111e5565b60405180910390a2505050565b6060600060016000848152602001908152602001600020905080600301805480602002602001604051908101604052809291908181526020018280548015610a4257602002820191906000526020600020905b8160009054906101000a900473ffffffffffffffffffffffffffffffffffffffff1673ffffffffffffffffffffffffffffffffffffffff16815260200190600101908083116109f8575b5050505050915050919050565b6000806001600084815260200190815260200160002090508060010160149054906101000a900460ff1615610ab9576040517f08c379a0000000000000000000000000000000000000000000000000000000008152600401610ab090611ab0565b60405180910390fd5b6000806000905060008360030180549050905060005b81811015610bbf576000856003018281548110610aef57610aee611ad0565b5b9060005260206000200160009054906101000a900473ffffffffffffffffffffffffffffffffffffffff169050838660020160008373ffffffffffffffffffffffffffffffffffffffff1673ffffffffffffffffffffffffffffffffffffffff168152602001908152602001600020600101541115610bb3578560020160008273ffffffffffffffffffffffffffffffffffffffff1673ffffffffffffffffffffffffffffffffffffffff1681526020019081526020016000206001015493508094505b50806001019050610acf565b5082945050505050919050565b6001602052806000526040600020600091509050806000018054610bef906116ad565b80601f0160208091040260200160405190810160405280929190818152602001828054610c1b906116ad565b8015610c685780601f10610c3d57610100808354040283529160200191610c68565b820191906000526020600020905b815481529060010190602001808311610c4b57829003601f168201915b5050505050908060010160009054906101000a900473ffffffffffffffffffffffffffffffffffffffff16908060010160149054906101000a900460ff16905083565b6000806001600085815260200190815260200160002090508060020160008473ffffffffffffffffffffffffffffffffffffffff1673ffffffffffffffffffffffffffffffffffffffff1681526020019081526020016000206001015491505092915050565b60025481565b60006001600083815260200190815260200160002090508060010160009054906101000a900473ffffffffffffffffffffffffffffffffffffffff1673ffffffffffffffffffffffffffffffffffffffff163373ffffffffffffffffffffffffffffffffffffffff1614610dc0576040517f08c379a0000000000000000000000000000000000000000000000000000000008152600401610db7906119d8565b60405180910390fd5b8060010160149054906101000a900460ff16610e11576040517f08c379a0000000000000000000000000000000000000000000000000000000008152600401610e0890611b4b565b60405180910390fd5b60008160010160146101000a81548160ff0219169083151502179055505050565b60036020528060005260406000206000915054906101000a900460ff1681565b60008054906101000a900473ffffffffffffffffffffffffffffffffffffffff1673ffffffffffffffffffffffffffffffffffffffff163373ffffffffffffffffffffffffffffffffffffffff1614610ee0576040517f08c379a0000000000000000000000000000000000000000000000000000000008152600401610ed790611bb7565b60405180910390fd5b6001600360008373ffffffffffffffffffffffffffffffffffffffff1673ffffffffffffffffffffffffffffffffffffffff16815260200190815260200160002060006101000a81548160ff02191690831515021790555050565b60008054906101000a900473ffffffffffffffffffffffffffffffffffffffff1681565b6000604051905090565b600080fd5b600080fd5b6000819050919050565b610f8681610f73565b8114610f9157600080fd5b50565b600081359050610fa381610f7d565b92915050565b600073ffffffffffffffffffffffffffffffffffffffff82169050919050565b6000610fd482610fa9565b9050919050565b610fe481610fc9565b8114610fef57600080fd5b50565b60008135905061100181610fdb565b92915050565b6000806040838503121561101e5761101d610f69565b5b600061102c85828601610f94565b925050602061103d85828601610ff2565b9150509250929050565b600080fd5b600080fd5b6000601f19601f8301169050919050565b7f4e487b7100000000000000000000000000000000000000000000000000000000600052604160045260246000fd5b61109a82611051565b810181811067ffffffffffffffff821117156110b9576110b8611062565b5b80604052505050565b60006110cc610f5f565b90506110d88282611091565b919050565b600067ffffffffffffffff8211156110f8576110f7611062565b5b61110182611051565b9050602081019050919050565b82818337600083830152505050565b600061113061112b846110dd565b6110c2565b90508281526020810184848401111561114c5761114b61104c565b5b61115784828561110e565b509392505050565b600082601f83011261117457611173611047565b5b813561118484826020860161111d565b91505092915050565b6000602082840312156111a3576111a2610f69565b5b600082013567ffffffffffffffff8111156111c1576111c0610f6e565b5b6111cd8482850161115f565b91505092915050565b6111df81610f73565b82525050565b60006020820190506111fa60008301846111d6565b92915050565b60006020828403121561121657611215610f69565b5b600061122484828501610f94565b91505092915050565b600081519050919050565b600082825260208201905092915050565b6000819050602082019050919050565b61126281610fc9565b82525050565b60006112748383611259565b60208301905092915050565b6000602082019050919050565b60006112988261122d565b6112a28185611238565b93506112ad83611249565b8060005b838110156112de5781516112c58882611268565b97506112d083611280565b9250506001810190506112b1565b5085935050505092915050565b60006020820190508181036000830152611305818461128d565b905092915050565b61131681610fc9565b82525050565b6000602082019050611331600083018461130d565b92915050565b600081519050919050565b600082825260208201905092915050565b60005b83811015611371578082015181840152602081019050611356565b60008484015250505050565b600061138882611337565b6113928185611342565b93506113a2818560208601611353565b6113ab81611051565b840191505092915050565b60008115159050919050565b6113cb816113b6565b82525050565b600060608201905081810360008301526113eb818661137d565b90506113fa602083018561130d565b61140760408301846113c2565b949350505050565b60006020828403121561142557611424610f69565b5b600061143384828501610ff2565b91505092915050565b600060208201905061145160008301846113c2565b92915050565b7f456c656374696f6e2069736e2774206163746976650000000000000000000000600082015250565b600061148d601583611342565b915061149882611457565b602082019050919050565b600060208201905081810360008301526114bc81611480565b9050919050565b7f416c726561647920766f74656400000000000000000000000000000000000000600082015250565b60006114f9600d83611342565b9150611504826114c3565b602082019050919050565b60006020820190508181036000830152611528816114ec565b9050919050565b7f496e76616c69642063616e646964617465000000000000000000000000000000600082015250565b6000611565601183611342565b91506115708261152f565b602082019050919050565b6000602082019050818103600083015261159481611558565b9050919050565b7f4e487b7100000000000000000000000000000000000000000000000000000000600052601160045260246000fd5b60006115d582610f73565b91507fffffffffffffffffffffffffffffffffffffffffffffffffffffffffffffffff82036116075761160661159b565b5b600182019050919050565b7f4e6f7420617574686f72697a6564000000000000000000000000000000000000600082015250565b6000611648600e83611342565b915061165382611612565b602082019050919050565b600060208201905081810360008301526116778161163b565b9050919050565b7f4e487b7100000000000000000000000000000000000000000000000000000000600052602260045260246000fd5b600060028204905060018216806116c557607f821691505b6020821081036116d8576116d761167e565b5b50919050565b60008190508160005260206000209050919050565b60006020601f8301049050919050565b600082821b905092915050565b6000600883026117407fffffffffffffffffffffffffffffffffffffffffffffffffffffffffffffffff82611703565b61174a8683611703565b95508019841693508086168417925050509392505050565b6000819050919050565b600061178761178261177d84610f73565b611762565b610f73565b9050919050565b6000819050919050565b6117a18361176c565b6117b56117ad8261178e565b848454611710565b825550505050565b600090565b6117ca6117bd565b6117d5818484611798565b505050565b5b818110156117f9576117ee6000826117c2565b6001810190506117db565b5050565b601f82111561183e5761180f816116de565b611818846116f3565b81016020851015611827578190505b61183b611833856116f3565b8301826117da565b50505b505050565b600082821c905092915050565b600061186160001984600802611843565b1980831691505092915050565b600061187a8383611850565b9150826002028217905092915050565b61189382611337565b67ffffffffffffffff8111156118ac576118ab611062565b5b6118b682546116ad565b6118c18282856117fd565b600060209050601f8311600181146118f457600084156118e2578287015190505b6118ec858261186e565b865550611954565b601f198416611902866116de565b60005b8281101561192a57848901518255600182019150602085019450602081019050611905565b868310156119475784890151611943601f891682611850565b8355505b6001600288020188555050505b505050505050565b600060408201905061197160008301856111d6565b8181036020830152611983818461137d565b90509392505050565b7f4f6e6c7920656c656374696f6e2063726561746f722063616e00000000000000600082015250565b60006119c2601983611342565b91506119cd8261198c565b602082019050919050565b600060208201905081810360008301526119f1816119b5565b9050919050565b7f43616e64696461746520616c7265616479206164646564000000000000000000600082015250565b6000611a2e601783611342565b9150611a39826119f8565b602082019050919050565b60006020820190508181036000830152611a5d81611a21565b9050919050565b7f456c656374696f6e206973207374696c6c206163746976650000000000000000600082015250565b6000611a9a601883611342565b9150611aa582611a64565b602082019050919050565b60006020820190508181036000830152611ac981611a8d565b9050919050565b7f4e487b7100000000000000000000000000000000000000000000000000000000600052603260045260246000fd5b7f456c656374696f6e20697320616c726561647920656e64656400000000000000600082015250565b6000611b35601983611342565b9150611b4082611aff565b602082019050919050565b60006020820190508181036000830152611b6481611b28565b9050919050565b7f4f6e6c792061646d696e2063616e20646f206974000000000000000000000000600082015250565b6000611ba1601483611342565b9150611bac82611b6b565b602082019050919050565b60006020820190508181036000830152611bd081611b94565b905091905056fea264697066735822122058044a80bdf39ceb038d18da076181af2533f475b8295989718b0dde219613ed64736f6c63430008180033",
  "linkReferences": {},
  "deployedLinkReferences": {}
}