{
  "_format": "hh-sol-artifact-1",
  "contractName": "ElectionManager",
  "sourceName": "contracts/election.sol",
  "abi": [
    {
      "inputs": [],
      "stateMutability": "nonpayable",
      "type": "constructor"
    },
    {
      "anonymous": false,
      "inputs": [
        {
          "indexed": false,
          "internalType": "uint256",
          "name": "electionId",
          "type": "uint256"
        },
        {
          "indexed": false,
          "internalType": "address",
          "name": "candidate",
          "type": "address"
        }
      ],
      "name": "CandidateAdded",
      "type": "event"
    },
    {
      "anonymous": false,
      "inputs": [
        {
          "indexed": false,
          "internalType": "uint256",
          "name": "electionId",
          "type": "uint256"
        },
        {
          "indexed": false,
          "internalType": "string",
          "name": "name",
          "type": "string"
        },
        {
          "indexed": false,
          "internalType": "address",
          "name": "creator",
          "type": "address"
        }
      ],
      "name": "ElectionCreated",
      "type": "event"
    },
    {
      "anonymous": false,
      "inputs": [
        {
          "indexed": false,
          "internalType": "uint256",
          "name": "electionId",
          "type": "uint256"
        },
        {
          "indexed": false,
          "internalType": "address",
          "name": "voter",
          "type": "address"
        },
        {
          "indexed": false,
          "internalType": "address",
          "name": "candidate",
          "type": "address"
        }
      ],
      "name": "VoteCast",
      "type": "event"
    },
    {
      "anonymous": false,
      "inputs": [
        {
          "indexed": false,
          "internalType": "uint256",
          "name": "electionId",
          "type": "uint256"
        },
        {
          "indexed": false,
          "internalType": "address",
          "name": "voter",
          "type": "address"
        }
      ],
      "name": "VoterAdded",
      "type": "event"
    },
    {
      "inputs": [
        {
          "internalType": "uint256",
          "name": "_electionId",
          "type": "uint256"
        },
        {
          "internalType": "address",
          "name": "_candidate",
          "type": "address"
        }
      ],
      "name": "addCandidate",
      "outputs": [],
      "stateMutability": "nonpayable",
      "type": "function"
    },
    {
      "inputs": [
        {
          "internalType": "uint256",
          "name": "_electionId",
          "type": "uint256"
        },
        {
          "internalType": "address",
          "name": "_voter",
          "type": "address"
        }
      ],
      "name": "addVoter",
      "outputs": [],
      "stateMutability": "nonpayable",
      "type": "function"
    },
    {
      "inputs": [],
      "name": "admin",
      "outputs": [
        {
          "internalType": "address",
          "name": "",
          "type": "address"
        }
      ],
      "stateMutability": "view",
      "type": "function"
    },
    {
      "inputs": [
        {
          "internalType": "address",
          "name": "_creator",
          "type": "address"
        }
      ],
      "name": "authorizeCreator",
      "outputs": [],
      "stateMutability": "nonpayable",
      "type": "function"
    },
    {
      "inputs": [
        {
          "internalType": "address",
          "name": "",
          "type": "address"
        }
      ],
      "name": "authorizedCreators",
      "outputs": [
        {
          "internalType": "bool",
          "name": "",
          "type": "bool"
        }
      ],
      "stateMutability": "view",
      "type": "function"
    },
    {
      "inputs": [
        {
          "internalType": "string",
          "name": "_name",
          "type": "string"
        }
      ],
      "name": "createElection",
      "outputs": [],
      "stateMutability": "nonpayable",
      "type": "function"
    },
    {
      "inputs": [],
      "name": "electionCount",
      "outputs": [
        {
          "internalType": "uint256",
          "name": "",
          "type": "uint256"
        }
      ],
      "stateMutability": "view",
      "type": "function"
    },
    {
      "inputs": [
        {
          "internalType": "uint256",
          "name": "",
          "type": "uint256"
        }
      ],
      "name": "elections",
      "outputs": [
        {
          "internalType": "string",
          "name": "name",
          "type": "string"
        },
        {
          "internalType": "address",
          "name": "creator",
          "type": "address"
        },
        {
          "internalType": "bool",
          "name": "isActive",
          "type": "bool"
        }
      ],
      "stateMutability": "view",
      "type": "function"
    },
    {
      "inputs": [
        {
          "internalType": "uint256",
          "name": "_electionId",
          "type": "uint256"
        }
      ],
      "name": "endElection",
      "outputs": [],
      "stateMutability": "nonpayable",
      "type": "function"
    },
    {
      "inputs": [
        {
          "internalType": "uint256",
          "name": "_electionId",
          "type": "uint256"
        }
      ],
      "name": "getCandidates",
      "outputs": [
        {
          "internalType": "address[]",
          "name": "",
          "type": "address[]"
        }
      ],
      "stateMutability": "view",
      "type": "function"
    },
    {
      "inputs": [
        {
          "internalType": "uint256",
          "name": "_electionId",
          "type": "uint256"
        },
        {
          "internalType": "address",
          "name": "_candidate",
          "type": "address"
        }
      ],
      "name": "getVotes",
      "outputs": [
        {
          "internalType": "uint256",
          "name": "",
          "type": "uint256"
        }
      ],
      "stateMutability": "view",
      "type": "function"
    },
    {
      "inputs": [
        {
          "internalType": "uint256",
          "name": "_electionId",
          "type": "uint256"
        }
      ],
      "name": "getWinner",
      "outputs": [
        {
          "internalType": "address",
          "name": "",
          "type": "address"
        }
      ],
      "stateMutability": "view",
      "type": "function"
    },
    {
      "inputs": [
        {
          "internalType": "uint256",
          "name": "_electionId",
          "type": "uint256"
        },
        {
          "internalType": "address",
          "name": "_candidate",
          "type": "address"
        }
      ],
      "name": "vote",
      "outputs": [],
      "stateMutability": "nonpayable",
      "type": "function"
    }
  ],
  "bytecode": "0x608060405234801561001057600080fd5b50336000806101000a81548173ffffffffffffffffffffffffffffffffffffffff021916908373ffffffffffffffffffffffffffffffffffffffff1602179055506121f1806100606000396000f3fe608060405234801561001057600080fd5b50600436106100cf5760003560e01c80635e6fef011161008c5780639c98bcbb116100665780639c98bcbb14610224578063c695502a14610240578063d8625b0714610270578063f851a4401461028c576100cf565b80635e6fef01146101a457806368197360146101d6578063997d283014610206576100cf565b806302d947ef146100d457806309391321146100f057806315cf4a5f1461010c57806333c57ccd146101285780633e39a7a5146101445780634129b2c914610174575b600080fd5b6100ee60048036038101906100e9919061130f565b6102aa565b005b61010a6004803603810190610105919061130f565b6105bd565b005b61012660048036038101906101219190611495565b61088b565b005b610142600480360381019061013d919061130f565b6109fb565b005b61015e600480360381019061015991906114de565b610cb1565b60405161016b91906115c9565b60405180910390f35b61018e600480360381019061018991906114de565b610d5b565b60405161019b91906115fa565b60405180910390f35b6101be60048036038101906101b991906114de565b610ed4565b6040516101cd939291906116af565b60405180910390f35b6101f060048036038101906101eb919061130f565b610fb3565b6040516101fd91906116fc565b60405180910390f35b61020e611019565b60405161021b91906116fc565b60405180910390f35b61023e600480360381019061023991906114de565b61101f565b005b61025a60048036038101906102559190611717565b61113a565b6040516102679190611744565b60405180910390f35b61028a60048036038101906102859190611717565b61115a565b005b610294611243565b6040516102a191906115fa565b60405180910390f35b60006001600084815260200190815260200160002090508060010160149054906101000a900460ff16610312576040517f08c379a0000000000000000000000000000000000000000000000000000000008152600401610309906117ab565b60405180910390fd5b8060040160003373ffffffffffffffffffffffffffffffffffffffff1673ffffffffffffffffffffffffffffffffffffffff16815260200190815260200160002060000160009054906101000a900460ff166103a3576040517f08c379a000000000000000000000000000000000000000000000000000000000815260040161039a90611817565b60405180910390fd5b8060040160003373ffffffffffffffffffffffffffffffffffffffff1673ffffffffffffffffffffffffffffffffffffffff16815260200190815260200160002060000160019054906101000a900460ff1615610435576040517f08c379a000000000000000000000000000000000000000000000000000000000815260040161042c90611883565b60405180910390fd5b8060020160008373ffffffffffffffffffffffffffffffffffffffff1673ffffffffffffffffffffffffffffffffffffffff16815260200190815260200160002060000160009054906101000a900460ff166104c6576040517f08c379a00000000000000000000000000000000000000000000000000000000081526004016104bd906118ef565b60405180910390fd5b8060020160008373ffffffffffffffffffffffffffffffffffffffff1673ffffffffffffffffffffffffffffffffffffffff168152602001908152602001600020600101600081548092919061051b9061193e565b919050555060018160040160003373ffffffffffffffffffffffffffffffffffffffff1673ffffffffffffffffffffffffffffffffffffffff16815260200190815260200160002060000160016101000a81548160ff0219169083151502179055507fcfff1651bcea794952a516ce970ab17518a85210bd939aaeaac670a8d3e65ec78333846040516105b093929190611986565b60405180910390a1505050565b60006001600084815260200190815260200160002090508060010160009054906101000a900473ffffffffffffffffffffffffffffffffffffffff1673ffffffffffffffffffffffffffffffffffffffff163373ffffffffffffffffffffffffffffffffffffffff1614610666576040517f08c379a000000000000000000000000000000000000000000000000000000000815260040161065d90611a2f565b60405180910390fd5b8060010160149054906101000a900460ff166106b7576040517f08c379a00000000000000000000000000000000000000000000000000000000081526004016106ae906117ab565b60405180910390fd5b8060040160008373ffffffffffffffffffffffffffffffffffffffff1673ffffffffffffffffffffffffffffffffffffffff16815260200190815260200160002060000160009054906101000a900460ff1615610749576040517f08c379a000000000000000000000000000000000000000000000000000000000815260040161074090611a9b565b60405180910390fd5b6040518060400160405280600115158152602001600015158152508160040160008473ffffffffffffffffffffffffffffffffffffffff1673ffffffffffffffffffffffffffffffffffffffff16815260200190815260200160002060008201518160000160006101000a81548160ff02191690831515021790555060208201518160000160016101000a81548160ff02191690831515021790555090505080600501829080600181540180825580915050600190039060005260206000200160009091909190916101000a81548173ffffffffffffffffffffffffffffffffffffffff021916908373ffffffffffffffffffffffffffffffffffffffff1602179055507fbe03f66069cbbe16c325546c4cf7a8d334ab3baa0a1e50ad1b5955cf7565f514838360405161087e929190611abb565b60405180910390a1505050565b600360003373ffffffffffffffffffffffffffffffffffffffff1673ffffffffffffffffffffffffffffffffffffffff16815260200190815260200160002060009054906101000a900460ff16610917576040517f08c379a000000000000000000000000000000000000000000000000000000000815260040161090e90611b56565b60405180910390fd5b6002600081548092919061092a9061193e565b919050555060006001600060025481526020019081526020016000209050818160000190816109599190611d82565b50338160010160006101000a81548173ffffffffffffffffffffffffffffffffffffffff021916908373ffffffffffffffffffffffffffffffffffffffff16021790555060018160010160146101000a81548160ff0219169083151502179055507f86a3370600c4089c572e5fa1f974825253da2be6295eb9e0eef3423aebd991b060025483336040516109ef93929190611e54565b60405180910390a15050565b60006001600084815260200190815260200160002090508060010160009054906101000a900473ffffffffffffffffffffffffffffffffffffffff1673ffffffffffffffffffffffffffffffffffffffff163373ffffffffffffffffffffffffffffffffffffffff1614610aa4576040517f08c379a0000000000000000000000000000000000000000000000000000000008152600401610a9b90611f04565b60405180910390fd5b8060010160149054906101000a900460ff16610af5576040517f08c379a0000000000000000000000000000000000000000000000000000000008152600401610aec906117ab565b60405180910390fd5b8060020160008373ffffffffffffffffffffffffffffffffffffffff1673ffffffffffffffffffffffffffffffffffffffff16815260200190815260200160002060000160009054906101000a900460ff1615610b87576040517f08c379a0000000000000000000000000000000000000000000000000000000008152600401610b7e90611f70565b60405180910390fd5b604051806040016040528060011515815260200160008152508160020160008473ffffffffffffffffffffffffffffffffffffffff1673ffffffffffffffffffffffffffffffffffffffff16815260200190815260200160002060008201518160000160006101000a81548160ff0219169083151502179055506020820151816001015590505080600301829080600181540180825580915050600190039060005260206000200160009091909190916101000a81548173ffffffffffffffffffffffffffffffffffffffff021916908373ffffffffffffffffffffffffffffffffffffffff1602179055507fae67715e53b8e1ee028f0b9cddbc208be7d0889701d1ba0ec4414baeaf37b2eb8383604051610ca4929190611abb565b60405180910390a1505050565b6060600060016000848152602001908152602001600020905080600301805480602002602001604051908101604052809291908181526020018280548015610d4e57602002820191906000526020600020905b8160009054906101000a900473ffffffffffffffffffffffffffffffffffffffff1673ffffffffffffffffffffffffffffffffffffffff1681526020019060010190808311610d04575b5050505050915050919050565b6000806001600084815260200190815260200160002090508060010160149054906101000a900460ff1615610dc5576040517f08c379a0000000000000000000000000000000000000000000000000000000008152600401610dbc90611fdc565b60405180910390fd5b6000806000905060005b8360030180549050811015610ec8576000846003018281548110610df657610df5611ffc565b5b9060005260206000200160009054906101000a900473ffffffffffffffffffffffffffffffffffffffff169050828560020160008373ffffffffffffffffffffffffffffffffffffffff1673ffffffffffffffffffffffffffffffffffffffff168152602001908152602001600020600101541115610eba578460020160008273ffffffffffffffffffffffffffffffffffffffff1673ffffffffffffffffffffffffffffffffffffffff1681526020019081526020016000206001015492508093505b508080600101915050610dcf565b50819350505050919050565b6001602052806000526040600020600091509050806000018054610ef790611ba5565b80601f0160208091040260200160405190810160405280929190818152602001828054610f2390611ba5565b8015610f705780601f10610f4557610100808354040283529160200191610f70565b820191906000526020600020905b815481529060010190602001808311610f5357829003601f168201915b5050505050908060010160009054906101000a900473ffffffffffffffffffffffffffffffffffffffff16908060010160149054906101000a900460ff16905083565b6000806001600085815260200190815260200160002090508060020160008473ffffffffffffffffffffffffffffffffffffffff1673ffffffffffffffffffffffffffffffffffffffff1681526020019081526020016000206001015491505092915050565b60025481565b60006001600083815260200190815260200160002090508060010160009054906101000a900473ffffffffffffffffffffffffffffffffffffffff1673ffffffffffffffffffffffffffffffffffffffff163373ffffffffffffffffffffffffffffffffffffffff16146110c8576040517f08c379a00000000000000000000000000000000000000000000000000000000081526004016110bf9061209d565b60405180910390fd5b8060010160149054906101000a900460ff16611119576040517f08c379a000000000000000000000000000000000000000000000000000000000815260040161111090612109565b60405180910390fd5b60008160010160146101000a81548160ff0219169083151502179055505050565b60036020528060005260406000206000915054906101000a900460ff1681565b60008054906101000a900473ffffffffffffffffffffffffffffffffffffffff1673ffffffffffffffffffffffffffffffffffffffff163373ffffffffffffffffffffffffffffffffffffffff16146111e8576040517f08c379a00000000000000000000000000000000000000000000000000000000081526004016111df9061219b565b60405180910390fd5b6001600360008373ffffffffffffffffffffffffffffffffffffffff1673ffffffffffffffffffffffffffffffffffffffff16815260200190815260200160002060006101000a81548160ff02191690831515021790555050565b60008054906101000a900473ffffffffffffffffffffffffffffffffffffffff1681565b6000604051905090565b600080fd5b600080fd5b6000819050919050565b61128e8161127b565b811461129957600080fd5b50565b6000813590506112ab81611285565b92915050565b600073ffffffffffffffffffffffffffffffffffffffff82169050919050565b60006112dc826112b1565b9050919050565b6112ec816112d1565b81146112f757600080fd5b50565b600081359050611309816112e3565b92915050565b6000806040838503121561132657611325611271565b5b60006113348582860161129c565b9250506020611345858286016112fa565b9150509250929050565b600080fd5b600080fd5b6000601f19601f8301169050919050565b7f4e487b7100000000000000000000000000000000000000000000000000000000600052604160045260246000fd5b6113a282611359565b810181811067ffffffffffffffff821117156113c1576113c061136a565b5b80604052505050565b60006113d4611267565b90506113e08282611399565b919050565b600067ffffffffffffffff821115611400576113ff61136a565b5b61140982611359565b9050602081019050919050565b82818337600083830152505050565b6000611438611433846113e5565b6113ca565b90508281526020810184848401111561145457611453611354565b5b61145f848285611416565b509392505050565b600082601f83011261147c5761147b61134f565b5b813561148c848260208601611425565b91505092915050565b6000602082840312156114ab576114aa611271565b5b600082013567ffffffffffffffff8111156114c9576114c8611276565b5b6114d584828501611467565b91505092915050565b6000602082840312156114f4576114f3611271565b5b60006115028482850161129c565b91505092915050565b600081519050919050565b600082825260208201905092915050565b6000819050602082019050919050565b611540816112d1565b82525050565b60006115528383611537565b60208301905092915050565b6000602082019050919050565b60006115768261150b565b6115808185611516565b935061158b83611527565b8060005b838110156115bc5781516115a38882611546565b97506115ae8361155e565b92505060018101905061158f565b5085935050505092915050565b600060208201905081810360008301526115e3818461156b565b905092915050565b6115f4816112d1565b82525050565b600060208201905061160f60008301846115eb565b92915050565b600081519050919050565b600082825260208201905092915050565b60005b8381101561164f578082015181840152602081019050611634565b60008484015250505050565b600061166682611615565b6116708185611620565b9350611680818560208601611631565b61168981611359565b840191505092915050565b60008115159050919050565b6116a981611694565b82525050565b600060608201905081810360008301526116c9818661165b565b90506116d860208301856115eb565b6116e560408301846116a0565b949350505050565b6116f68161127b565b82525050565b600060208201905061171160008301846116ed565b92915050565b60006020828403121561172d5761172c611271565b5b600061173b848285016112fa565b91505092915050565b600060208201905061175960008301846116a0565b92915050565b7f456c656374696f6e206973206e6f742061637469766500000000000000000000600082015250565b6000611795601683611620565b91506117a08261175f565b602082019050919050565b600060208201905081810360008301526117c481611788565b9050919050565b7f596f7520617265206e6f7420616c6c6f77656420746f20766f74650000000000600082015250565b6000611801601b83611620565b915061180c826117cb565b602082019050919050565b60006020820190508181036000830152611830816117f4565b9050919050565b7f596f75206861766520616c726561647920766f74656400000000000000000000600082015250565b600061186d601683611620565b915061187882611837565b602082019050919050565b6000602082019050818103600083015261189c81611860565b9050919050565b7f496e76616c69642063616e646964617465000000000000000000000000000000600082015250565b60006118d9601183611620565b91506118e4826118a3565b602082019050919050565b60006020820190508181036000830152611908816118cc565b9050919050565b7f4e487b7100000000000000000000000000000000000000000000000000000000600052601160045260246000fd5b60006119498261127b565b91507fffffffffffffffffffffffffffffffffffffffffffffffffffffffffffffffff820361197b5761197a61190f565b5b600182019050919050565b600060608201905061199b60008301866116ed565b6119a860208301856115eb565b6119b560408301846115eb565b949350505050565b7f4f6e6c7920656c656374696f6e2063726561746f722063616e2061646420766f60008201527f7465727300000000000000000000000000000000000000000000000000000000602082015250565b6000611a19602483611620565b9150611a24826119bd565b604082019050919050565b60006020820190508181036000830152611a4881611a0c565b9050919050565b7f566f74657220616c726561647920616464656400000000000000000000000000600082015250565b6000611a85601383611620565b9150611a9082611a4f565b602082019050919050565b60006020820190508181036000830152611ab481611a78565b9050919050565b6000604082019050611ad060008301856116ed565b611add60208301846115eb565b9392505050565b7f4e6f7420616e20617574686f72697a656420656c656374696f6e20637265617460008201527f6f72000000000000000000000000000000000000000000000000000000000000602082015250565b6000611b40602283611620565b9150611b4b82611ae4565b604082019050919050565b60006020820190508181036000830152611b6f81611b33565b9050919050565b7f4e487b7100000000000000000000000000000000000000000000000000000000600052602260045260246000fd5b60006002820490506001821680611bbd57607f821691505b602082108103611bd057611bcf611b76565b5b50919050565b60008190508160005260206000209050919050565b60006020601f8301049050919050565b600082821b905092915050565b600060088302611c387fffffffffffffffffffffffffffffffffffffffffffffffffffffffffffffffff82611bfb565b611c428683611bfb565b95508019841693508086168417925050509392505050565b6000819050919050565b6000611c7f611c7a611c758461127b565b611c5a565b61127b565b9050919050565b6000819050919050565b611c9983611c64565b611cad611ca582611c86565b848454611c08565b825550505050565b600090565b611cc2611cb5565b611ccd818484611c90565b505050565b5b81811015611cf157611ce6600082611cba565b600181019050611cd3565b5050565b601f821115611d3657611d0781611bd6565b611d1084611beb565b81016020851015611d1f578190505b611d33611d2b85611beb565b830182611cd2565b50505b505050565b600082821c905092915050565b6000611d5960001984600802611d3b565b1980831691505092915050565b6000611d728383611d48565b9150826002028217905092915050565b611d8b82611615565b67ffffffffffffffff811115611da457611da361136a565b5b611dae8254611ba5565b611db9828285611cf5565b600060209050601f831160018114611dec5760008415611dda578287015190505b611de48582611d66565b865550611e4c565b601f198416611dfa86611bd6565b60005b82811015611e2257848901518255600182019150602085019450602081019050611dfd565b86831015611e3f5784890151611e3b601f891682611d48565b8355505b6001600288020188555050505b505050505050565b6000606082019050611e6960008301866116ed565b8181036020830152611e7b818561165b565b9050611e8a60408301846115eb565b949350505050565b7f4f6e6c7920656c656374696f6e2063726561746f722063616e2061646420636160008201527f6e64696461746573000000000000000000000000000000000000000000000000602082015250565b6000611eee602883611620565b9150611ef982611e92565b604082019050919050565b60006020820190508181036000830152611f1d81611ee1565b9050919050565b7f43616e64696461746520616c7265616479206164646564000000000000000000600082015250565b6000611f5a601783611620565b9150611f6582611f24565b602082019050919050565b60006020820190508181036000830152611f8981611f4d565b9050919050565b7f456c656374696f6e206973207374696c6c206163746976650000000000000000600082015250565b6000611fc6601883611620565b9150611fd182611f90565b602082019050919050565b60006020820190508181036000830152611ff581611fb9565b9050919050565b7f4e487b7100000000000000000000000000000000000000000000000000000000600052603260045260246000fd5b7f4f6e6c7920656c656374696f6e2063726561746f722063616e20656e6420746860008201527f6520656c656374696f6e00000000000000000000000000000000000000000000602082015250565b6000612087602a83611620565b91506120928261202b565b604082019050919050565b600060208201905081810360008301526120b68161207a565b9050919050565b7f456c656374696f6e20697320616c726561647920656e64656400000000000000600082015250565b60006120f3601983611620565b91506120fe826120bd565b602082019050919050565b60006020820190508181036000830152612122816120e6565b9050919050565b7f4f6e6c792061646d696e2063616e20706572666f726d2074686973206163746960008201527f6f6e000000000000000000000000000000000000000000000000000000000000602082015250565b6000612185602283611620565b915061219082612129565b604082019050919050565b600060208201905081810360008301526121b481612178565b905091905056fea264697066735822122097fc9ab31b5294f18f4dac8ddf39e30f424a32114c8b60d31ef40f8a589aca7064736f6c63430008180033",
  "linkReferences": {},
  "deployedLinkReferences": {}
}